{
	"contracts/CommitReveal.sol": {
		"CommitReveal": {
			"abi": [
				{
					"anonymous": false,
					"inputs": [
						{
							"indexed": false,
							"internalType": "address",
							"name": "sender",
							"type": "address"
						},
						{
							"indexed": false,
							"internalType": "bytes32",
							"name": "dataHash",
							"type": "bytes32"
						},
						{
							"indexed": false,
							"internalType": "uint64",
							"name": "block",
							"type": "uint64"
						}
					],
					"name": "CommitHash",
					"type": "event"
				},
				{
					"anonymous": false,
					"inputs": [
						{
							"indexed": false,
							"internalType": "address",
							"name": "sender",
							"type": "address"
						},
						{
							"indexed": false,
							"internalType": "bytes32",
							"name": "revealHash",
							"type": "bytes32"
						},
						{
							"indexed": false,
							"internalType": "uint256",
							"name": "random",
							"type": "uint256"
						}
					],
					"name": "RevealHash",
					"type": "event"
				},
				{
					"inputs": [
						{
							"internalType": "bytes32",
							"name": "dataHash",
							"type": "bytes32"
						}
					],
					"name": "commit",
					"outputs": [],
					"stateMutability": "nonpayable",
					"type": "function"
				},
				{
					"inputs": [
						{
							"internalType": "address",
							"name": "",
							"type": "address"
						}
					],
					"name": "commits",
					"outputs": [
						{
							"internalType": "bytes32",
							"name": "commit",
							"type": "bytes32"
						},
						{
							"internalType": "uint64",
							"name": "block",
							"type": "uint64"
						},
						{
							"internalType": "bool",
							"name": "revealed",
							"type": "bool"
						}
					],
					"stateMutability": "view",
					"type": "function"
				},
				{
					"inputs": [],
					"name": "getAddress",
					"outputs": [
						{
							"internalType": "address",
							"name": "",
							"type": "address"
						}
					],
					"stateMutability": "view",
					"type": "function"
				},
				{
					"inputs": [
						{
							"internalType": "bytes32",
							"name": "data",
							"type": "bytes32"
						}
					],
					"name": "getHash",
					"outputs": [
						{
							"internalType": "bytes32",
							"name": "",
							"type": "bytes32"
						}
					],
					"stateMutability": "pure",
					"type": "function"
				},
				{
					"inputs": [],
					"name": "getMyCommit",
					"outputs": [
						{
							"components": [
								{
									"internalType": "bytes32",
									"name": "commit",
									"type": "bytes32"
								},
								{
									"internalType": "uint64",
									"name": "block",
									"type": "uint64"
								},
								{
									"internalType": "bool",
									"name": "revealed",
									"type": "bool"
								}
							],
							"internalType": "struct CommitReveal.Commit",
							"name": "",
							"type": "tuple"
						}
					],
					"stateMutability": "view",
					"type": "function"
				},
				{
					"inputs": [],
					"name": "max",
					"outputs": [
						{
							"internalType": "uint8",
							"name": "",
							"type": "uint8"
						}
					],
					"stateMutability": "view",
					"type": "function"
				},
				{
					"inputs": [
						{
							"internalType": "bytes32",
							"name": "revealHash",
							"type": "bytes32"
						}
					],
					"name": "reveal",
					"outputs": [],
					"stateMutability": "nonpayable",
					"type": "function"
				}
			],
			"devdoc": {
				"kind": "dev",
				"methods": {},
				"version": 1
			},
			"evm": {
				"assembly": "    /* \"contracts/CommitReveal.sol\":70:2114  contract CommitReveal {... */\n  mstore(0x40, 0x80)\n    /* \"contracts/CommitReveal.sol\":116:119  100 */\n  0x64\n    /* \"contracts/CommitReveal.sol\":97:119  uint8 public max = 100 */\n  0x00\n  dup1\n  0x0100\n  exp\n  dup2\n  sload\n  dup2\n  0xff\n  mul\n  not\n  and\n  swap1\n  dup4\n  0xff\n  and\n  mul\n  or\n  swap1\n  sstore\n  pop\n    /* \"contracts/CommitReveal.sol\":70:2114  contract CommitReveal {... */\n  callvalue\n  dup1\n  iszero\n  tag_1\n  jumpi\n  0x00\n  dup1\n  revert\ntag_1:\n  pop\n  dataSize(sub_0)\n  dup1\n  dataOffset(sub_0)\n  0x00\n  codecopy\n  0x00\n  return\nstop\n\nsub_0: assembly {\n        /* \"contracts/CommitReveal.sol\":70:2114  contract CommitReveal {... */\n      mstore(0x40, 0x80)\n      callvalue\n      dup1\n      iszero\n      tag_1\n      jumpi\n      0x00\n      dup1\n      revert\n    tag_1:\n      pop\n      jumpi(tag_2, lt(calldatasize, 0x04))\n      shr(0xe0, calldataload(0x00))\n      dup1\n      0x6ac5db19\n      gt\n      tag_10\n      jumpi\n      dup1\n      0x6ac5db19\n      eq\n      tag_6\n      jumpi\n      dup1\n      0x701fd0f1\n      eq\n      tag_7\n      jumpi\n      dup1\n      0x7b43a8e6\n      eq\n      tag_8\n      jumpi\n      dup1\n      0xf14fcbc8\n      eq\n      tag_9\n      jumpi\n      jump(tag_2)\n    tag_10:\n      dup1\n      0x38cc4831\n      eq\n      tag_3\n      jumpi\n      dup1\n      0x3cf5040a\n      eq\n      tag_4\n      jumpi\n      dup1\n      0x4817df3b\n      eq\n      tag_5\n      jumpi\n    tag_2:\n      0x00\n      dup1\n      revert\n        /* \"contracts/CommitReveal.sol\":1930:2013  function getAddress() public view returns (address) {... */\n    tag_3:\n      tag_11\n      tag_12\n      jump\t// in\n    tag_11:\n      mload(0x40)\n      tag_13\n      swap2\n      swap1\n      tag_14\n      jump\t// in\n    tag_13:\n      mload(0x40)\n      dup1\n      swap2\n      sub\n      swap1\n      return\n        /* \"contracts/CommitReveal.sol\":1816:1926  function getHash(bytes32 data) public pure returns(bytes32){... */\n    tag_4:\n      tag_15\n      0x04\n      dup1\n      calldatasize\n      sub\n      dup2\n      add\n      swap1\n      tag_16\n      swap2\n      swap1\n      tag_17\n      jump\t// in\n    tag_16:\n      tag_18\n      jump\t// in\n    tag_15:\n      mload(0x40)\n      tag_19\n      swap2\n      swap1\n      tag_20\n      jump\t// in\n    tag_19:\n      mload(0x40)\n      dup1\n      swap2\n      sub\n      swap1\n      return\n        /* \"contracts/CommitReveal.sol\":2017:2112  function getMyCommit() public view returns(Commit memory) {... */\n    tag_5:\n      tag_21\n      tag_22\n      jump\t// in\n    tag_21:\n      mload(0x40)\n      tag_23\n      swap2\n      swap1\n      tag_24\n      jump\t// in\n    tag_23:\n      mload(0x40)\n      dup1\n      swap2\n      sub\n      swap1\n      return\n        /* \"contracts/CommitReveal.sol\":97:119  uint8 public max = 100 */\n    tag_6:\n      tag_25\n      tag_26\n      jump\t// in\n    tag_25:\n      mload(0x40)\n      tag_27\n      swap2\n      swap1\n      tag_28\n      jump\t// in\n    tag_27:\n      mload(0x40)\n      dup1\n      swap2\n      sub\n      swap1\n      return\n        /* \"contracts/CommitReveal.sol\":594:1743  function reveal(bytes32 revealHash) public {... */\n    tag_7:\n      tag_29\n      0x04\n      dup1\n      calldatasize\n      sub\n      dup2\n      add\n      swap1\n      tag_30\n      swap2\n      swap1\n      tag_17\n      jump\t// in\n    tag_30:\n      tag_31\n      jump\t// in\n    tag_29:\n      stop\n        /* \"contracts/CommitReveal.sol\":204:246  mapping (address => Commit) public commits */\n    tag_8:\n      tag_32\n      0x04\n      dup1\n      calldatasize\n      sub\n      dup2\n      add\n      swap1\n      tag_33\n      swap2\n      swap1\n      tag_34\n      jump\t// in\n    tag_33:\n      tag_35\n      jump\t// in\n    tag_32:\n      mload(0x40)\n      tag_36\n      swap4\n      swap3\n      swap2\n      swap1\n      tag_37\n      jump\t// in\n    tag_36:\n      mload(0x40)\n      dup1\n      swap2\n      sub\n      swap1\n      return\n        /* \"contracts/CommitReveal.sol\":251:522  function commit(bytes32 dataHash) public {... */\n    tag_9:\n      tag_38\n      0x04\n      dup1\n      calldatasize\n      sub\n      dup2\n      add\n      swap1\n      tag_39\n      swap2\n      swap1\n      tag_17\n      jump\t// in\n    tag_39:\n      tag_40\n      jump\t// in\n    tag_38:\n      stop\n        /* \"contracts/CommitReveal.sol\":1930:2013  function getAddress() public view returns (address) {... */\n    tag_12:\n        /* \"contracts/CommitReveal.sol\":1973:1980  address */\n      0x00\n        /* \"contracts/CommitReveal.sol\":2003:2007  this */\n      address\n        /* \"contracts/CommitReveal.sol\":1988:2008  return address(this) */\n      swap1\n      pop\n        /* \"contracts/CommitReveal.sol\":1930:2013  function getAddress() public view returns (address) {... */\n      swap1\n      jump\t// out\n        /* \"contracts/CommitReveal.sol\":1816:1926  function getHash(bytes32 data) public pure returns(bytes32){... */\n    tag_18:\n        /* \"contracts/CommitReveal.sol\":1867:1874  bytes32 */\n      0x00\n        /* \"contracts/CommitReveal.sol\":1915:1919  data */\n      dup2\n        /* \"contracts/CommitReveal.sol\":1898:1920  abi.encodePacked(data) */\n      add(0x20, mload(0x40))\n      tag_43\n      swap2\n      swap1\n      tag_44\n      jump\t// in\n    tag_43:\n      mload(0x40)\n      0x20\n      dup2\n      dup4\n      sub\n      sub\n      dup2\n      mstore\n      swap1\n      0x40\n      mstore\n        /* \"contracts/CommitReveal.sol\":1888:1921  keccak256(abi.encodePacked(data)) */\n      dup1\n      mload\n      swap1\n      0x20\n      add\n      keccak256\n        /* \"contracts/CommitReveal.sol\":1881:1921  return keccak256(abi.encodePacked(data)) */\n      swap1\n      pop\n        /* \"contracts/CommitReveal.sol\":1816:1926  function getHash(bytes32 data) public pure returns(bytes32){... */\n      swap2\n      swap1\n      pop\n      jump\t// out\n        /* \"contracts/CommitReveal.sol\":2017:2112  function getMyCommit() public view returns(Commit memory) {... */\n    tag_22:\n        /* \"contracts/CommitReveal.sol\":2060:2073  Commit memory */\n      tag_45\n      tag_46\n      jump\t// in\n    tag_45:\n        /* \"contracts/CommitReveal.sol\":2088:2095  commits */\n      0x01\n        /* \"contracts/CommitReveal.sol\":2088:2107  commits[msg.sender] */\n      0x00\n        /* \"contracts/CommitReveal.sol\":2096:2106  msg.sender */\n      caller\n        /* \"contracts/CommitReveal.sol\":2088:2107  commits[msg.sender] */\n      0xffffffffffffffffffffffffffffffffffffffff\n      and\n      0xffffffffffffffffffffffffffffffffffffffff\n      and\n      dup2\n      mstore\n      0x20\n      add\n      swap1\n      dup2\n      mstore\n      0x20\n      add\n      0x00\n      keccak256\n        /* \"contracts/CommitReveal.sol\":2081:2107  return commits[msg.sender] */\n      mload(0x40)\n      dup1\n      0x60\n      add\n      0x40\n      mstore\n      swap1\n      dup2\n      0x00\n      dup3\n      add\n      sload\n      dup2\n      mstore\n      0x20\n      add\n      0x01\n      dup3\n      add\n      0x00\n      swap1\n      sload\n      swap1\n      0x0100\n      exp\n      swap1\n      div\n      0xffffffffffffffff\n      and\n      0xffffffffffffffff\n      and\n      0xffffffffffffffff\n      and\n      dup2\n      mstore\n      0x20\n      add\n      0x01\n      dup3\n      add\n      0x08\n      swap1\n      sload\n      swap1\n      0x0100\n      exp\n      swap1\n      div\n      0xff\n      and\n      iszero\n      iszero\n      iszero\n      iszero\n      dup2\n      mstore\n      pop\n      pop\n      swap1\n      pop\n        /* \"contracts/CommitReveal.sol\":2017:2112  function getMyCommit() public view returns(Commit memory) {... */\n      swap1\n      jump\t// out\n        /* \"contracts/CommitReveal.sol\":97:119  uint8 public max = 100 */\n    tag_26:\n      0x00\n      dup1\n      sload\n      swap1\n      0x0100\n      exp\n      swap1\n      div\n      0xff\n      and\n      dup2\n      jump\t// out\n        /* \"contracts/CommitReveal.sol\":594:1743  function reveal(bytes32 revealHash) public {... */\n    tag_31:\n        /* \"contracts/CommitReveal.sol\":748:753  false */\n      0x00\n        /* \"contracts/CommitReveal.sol\":718:753  commits[msg.sender].revealed==false */\n      iszero\n      iszero\n        /* \"contracts/CommitReveal.sol\":718:725  commits */\n      0x01\n        /* \"contracts/CommitReveal.sol\":718:737  commits[msg.sender] */\n      0x00\n        /* \"contracts/CommitReveal.sol\":726:736  msg.sender */\n      caller\n        /* \"contracts/CommitReveal.sol\":718:737  commits[msg.sender] */\n      0xffffffffffffffffffffffffffffffffffffffff\n      and\n      0xffffffffffffffffffffffffffffffffffffffff\n      and\n      dup2\n      mstore\n      0x20\n      add\n      swap1\n      dup2\n      mstore\n      0x20\n      add\n      0x00\n      keccak256\n        /* \"contracts/CommitReveal.sol\":718:746  commits[msg.sender].revealed */\n      0x01\n      add\n      0x08\n      swap1\n      sload\n      swap1\n      0x0100\n      exp\n      swap1\n      div\n      0xff\n      and\n        /* \"contracts/CommitReveal.sol\":718:753  commits[msg.sender].revealed==false */\n      iszero\n      iszero\n      eq\n        /* \"contracts/CommitReveal.sol\":710:795  require(commits[msg.sender].revealed==false,\"CommitReveal::reveal: Already revealed\") */\n      tag_49\n      jumpi\n      mload(0x40)\n      0x08c379a000000000000000000000000000000000000000000000000000000000\n      dup2\n      mstore\n      0x04\n      add\n      tag_50\n      swap1\n      tag_51\n      jump\t// in\n    tag_50:\n      mload(0x40)\n      dup1\n      swap2\n      sub\n      swap1\n      revert\n    tag_49:\n        /* \"contracts/CommitReveal.sol\":830:834  true */\n      0x01\n        /* \"contracts/CommitReveal.sol\":801:808  commits */\n      dup1\n        /* \"contracts/CommitReveal.sol\":801:820  commits[msg.sender] */\n      0x00\n        /* \"contracts/CommitReveal.sol\":809:819  msg.sender */\n      caller\n        /* \"contracts/CommitReveal.sol\":801:820  commits[msg.sender] */\n      0xffffffffffffffffffffffffffffffffffffffff\n      and\n      0xffffffffffffffffffffffffffffffffffffffff\n      and\n      dup2\n      mstore\n      0x20\n      add\n      swap1\n      dup2\n      mstore\n      0x20\n      add\n      0x00\n      keccak256\n        /* \"contracts/CommitReveal.sol\":801:829  commits[msg.sender].revealed */\n      0x01\n      add\n      0x08\n        /* \"contracts/CommitReveal.sol\":801:834  commits[msg.sender].revealed=true */\n      0x0100\n      exp\n      dup2\n      sload\n      dup2\n      0xff\n      mul\n      not\n      and\n      swap1\n      dup4\n      iszero\n      iszero\n      mul\n      or\n      swap1\n      sstore\n      pop\n        /* \"contracts/CommitReveal.sol\":924:931  commits */\n      0x01\n        /* \"contracts/CommitReveal.sol\":924:943  commits[msg.sender] */\n      0x00\n        /* \"contracts/CommitReveal.sol\":932:942  msg.sender */\n      caller\n        /* \"contracts/CommitReveal.sol\":924:943  commits[msg.sender] */\n      0xffffffffffffffffffffffffffffffffffffffff\n      and\n      0xffffffffffffffffffffffffffffffffffffffff\n      and\n      dup2\n      mstore\n      0x20\n      add\n      swap1\n      dup2\n      mstore\n      0x20\n      add\n      0x00\n      keccak256\n        /* \"contracts/CommitReveal.sol\":924:950  commits[msg.sender].commit */\n      0x00\n      add\n      sload\n        /* \"contracts/CommitReveal.sol\":903:922  getHash(revealHash) */\n      tag_52\n        /* \"contracts/CommitReveal.sol\":911:921  revealHash */\n      dup3\n        /* \"contracts/CommitReveal.sol\":903:910  getHash */\n      tag_18\n        /* \"contracts/CommitReveal.sol\":903:922  getHash(revealHash) */\n      jump\t// in\n    tag_52:\n        /* \"contracts/CommitReveal.sol\":903:950  getHash(revealHash)==commits[msg.sender].commit */\n      eq\n        /* \"contracts/CommitReveal.sol\":895:1011  require(getHash(revealHash)==commits[msg.sender].commit,\"CommitReveal::reveal: Revealed hash does not match commit\") */\n      tag_53\n      jumpi\n      mload(0x40)\n      0x08c379a000000000000000000000000000000000000000000000000000000000\n      dup2\n      mstore\n      0x04\n      add\n      tag_54\n      swap1\n      tag_55\n      jump\t// in\n    tag_54:\n      mload(0x40)\n      dup1\n      swap2\n      sub\n      swap1\n      revert\n    tag_53:\n        /* \"contracts/CommitReveal.sol\":1117:1124  commits */\n      0x01\n        /* \"contracts/CommitReveal.sol\":1117:1136  commits[msg.sender] */\n      0x00\n        /* \"contracts/CommitReveal.sol\":1125:1135  msg.sender */\n      caller\n        /* \"contracts/CommitReveal.sol\":1117:1136  commits[msg.sender] */\n      0xffffffffffffffffffffffffffffffffffffffff\n      and\n      0xffffffffffffffffffffffffffffffffffffffff\n      and\n      dup2\n      mstore\n      0x20\n      add\n      swap1\n      dup2\n      mstore\n      0x20\n      add\n      0x00\n      keccak256\n        /* \"contracts/CommitReveal.sol\":1117:1142  commits[msg.sender].block */\n      0x01\n      add\n      0x00\n      swap1\n      sload\n      swap1\n      0x0100\n      exp\n      swap1\n      div\n      0xffffffffffffffff\n      and\n        /* \"contracts/CommitReveal.sol\":1096:1142  uint64(block.number)>commits[msg.sender].block */\n      0xffffffffffffffff\n      and\n        /* \"contracts/CommitReveal.sol\":1103:1115  block.number */\n      number\n        /* \"contracts/CommitReveal.sol\":1096:1142  uint64(block.number)>commits[msg.sender].block */\n      0xffffffffffffffff\n      and\n      gt\n        /* \"contracts/CommitReveal.sol\":1088:1212  require(uint64(block.number)>commits[msg.sender].block,\"CommitReveal::reveal: Reveal and commit happened on the same block\") */\n      tag_56\n      jumpi\n      mload(0x40)\n      0x08c379a000000000000000000000000000000000000000000000000000000000\n      dup2\n      mstore\n      0x04\n      add\n      tag_57\n      swap1\n      tag_58\n      jump\t// in\n    tag_57:\n      mload(0x40)\n      dup1\n      swap2\n      sub\n      swap1\n      revert\n    tag_56:\n        /* \"contracts/CommitReveal.sol\":1329:1332  250 */\n      0xfa\n        /* \"contracts/CommitReveal.sol\":1303:1310  commits */\n      0x01\n        /* \"contracts/CommitReveal.sol\":1303:1322  commits[msg.sender] */\n      0x00\n        /* \"contracts/CommitReveal.sol\":1311:1321  msg.sender */\n      caller\n        /* \"contracts/CommitReveal.sol\":1303:1322  commits[msg.sender] */\n      0xffffffffffffffffffffffffffffffffffffffff\n      and\n      0xffffffffffffffffffffffffffffffffffffffff\n      and\n      dup2\n      mstore\n      0x20\n      add\n      swap1\n      dup2\n      mstore\n      0x20\n      add\n      0x00\n      keccak256\n        /* \"contracts/CommitReveal.sol\":1303:1328  commits[msg.sender].block */\n      0x01\n      add\n      0x00\n      swap1\n      sload\n      swap1\n      0x0100\n      exp\n      swap1\n      div\n      0xffffffffffffffff\n      and\n        /* \"contracts/CommitReveal.sol\":1303:1332  commits[msg.sender].block+250 */\n      tag_59\n      swap2\n      swap1\n      tag_60\n      jump\t// in\n    tag_59:\n        /* \"contracts/CommitReveal.sol\":1281:1332  uint64(block.number)<=commits[msg.sender].block+250 */\n      0xffffffffffffffff\n      and\n        /* \"contracts/CommitReveal.sol\":1288:1300  block.number */\n      number\n        /* \"contracts/CommitReveal.sol\":1281:1332  uint64(block.number)<=commits[msg.sender].block+250 */\n      0xffffffffffffffff\n      and\n      gt\n      iszero\n        /* \"contracts/CommitReveal.sol\":1273:1375  require(uint64(block.number)<=commits[msg.sender].block+250,\"CommitReveal::reveal: Revealed too late\") */\n      tag_61\n      jumpi\n      mload(0x40)\n      0x08c379a000000000000000000000000000000000000000000000000000000000\n      dup2\n      mstore\n      0x04\n      add\n      tag_62\n      swap1\n      tag_63\n      jump\t// in\n    tag_62:\n      mload(0x40)\n      dup1\n      swap2\n      sub\n      swap1\n      revert\n    tag_61:\n        /* \"contracts/CommitReveal.sol\":1448:1465  bytes32 blockHash */\n      0x00\n        /* \"contracts/CommitReveal.sol\":1478:1485  commits */\n      0x01\n        /* \"contracts/CommitReveal.sol\":1478:1497  commits[msg.sender] */\n      0x00\n        /* \"contracts/CommitReveal.sol\":1486:1496  msg.sender */\n      caller\n        /* \"contracts/CommitReveal.sol\":1478:1497  commits[msg.sender] */\n      0xffffffffffffffffffffffffffffffffffffffff\n      and\n      0xffffffffffffffffffffffffffffffffffffffff\n      and\n      dup2\n      mstore\n      0x20\n      add\n      swap1\n      dup2\n      mstore\n      0x20\n      add\n      0x00\n      keccak256\n        /* \"contracts/CommitReveal.sol\":1478:1503  commits[msg.sender].block */\n      0x01\n      add\n      0x00\n      swap1\n      sload\n      swap1\n      0x0100\n      exp\n      swap1\n      div\n      0xffffffffffffffff\n      and\n        /* \"contracts/CommitReveal.sol\":1468:1504  blockhash(commits[msg.sender].block) */\n      0xffffffffffffffff\n      and\n      blockhash\n        /* \"contracts/CommitReveal.sol\":1448:1504  bytes32 blockHash = blockhash(commits[msg.sender].block) */\n      swap1\n      pop\n        /* \"contracts/CommitReveal.sol\":1614:1625  uint random */\n      0x00\n        /* \"contracts/CommitReveal.sol\":1684:1687  max */\n      dup1\n      0x00\n      swap1\n      sload\n      swap1\n      0x0100\n      exp\n      swap1\n      div\n      0xff\n      and\n        /* \"contracts/CommitReveal.sol\":1628:1687  uint(keccak256(abi.encodePacked(blockHash,revealHash)))%max */\n      0xff\n      and\n        /* \"contracts/CommitReveal.sol\":1660:1669  blockHash */\n      dup3\n        /* \"contracts/CommitReveal.sol\":1670:1680  revealHash */\n      dup5\n        /* \"contracts/CommitReveal.sol\":1643:1681  abi.encodePacked(blockHash,revealHash) */\n      add(0x20, mload(0x40))\n      tag_64\n      swap3\n      swap2\n      swap1\n      tag_65\n      jump\t// in\n    tag_64:\n      mload(0x40)\n      0x20\n      dup2\n      dup4\n      sub\n      sub\n      dup2\n      mstore\n      swap1\n      0x40\n      mstore\n        /* \"contracts/CommitReveal.sol\":1633:1682  keccak256(abi.encodePacked(blockHash,revealHash)) */\n      dup1\n      mload\n      swap1\n      0x20\n      add\n      keccak256\n        /* \"contracts/CommitReveal.sol\":1628:1683  uint(keccak256(abi.encodePacked(blockHash,revealHash))) */\n      0x00\n      shr\n        /* \"contracts/CommitReveal.sol\":1628:1687  uint(keccak256(abi.encodePacked(blockHash,revealHash)))%max */\n      tag_66\n      swap2\n      swap1\n      tag_67\n      jump\t// in\n    tag_66:\n        /* \"contracts/CommitReveal.sol\":1614:1687  uint random = uint(keccak256(abi.encodePacked(blockHash,revealHash)))%max */\n      swap1\n      pop\n        /* \"contracts/CommitReveal.sol\":1698:1738  RevealHash(msg.sender,revealHash,random) */\n      0xbc016dd1cadeaefcb851af7a0a93532e0023d536894b730801f7bcfe7065bcc2\n        /* \"contracts/CommitReveal.sol\":1709:1719  msg.sender */\n      caller\n        /* \"contracts/CommitReveal.sol\":1720:1730  revealHash */\n      dup5\n        /* \"contracts/CommitReveal.sol\":1731:1737  random */\n      dup4\n        /* \"contracts/CommitReveal.sol\":1698:1738  RevealHash(msg.sender,revealHash,random) */\n      mload(0x40)\n      tag_68\n      swap4\n      swap3\n      swap2\n      swap1\n      tag_69\n      jump\t// in\n    tag_68:\n      mload(0x40)\n      dup1\n      swap2\n      sub\n      swap1\n      log1\n        /* \"contracts/CommitReveal.sol\":637:1743  {... */\n      pop\n      pop\n        /* \"contracts/CommitReveal.sol\":594:1743  function reveal(bytes32 revealHash) public {... */\n      pop\n      jump\t// out\n        /* \"contracts/CommitReveal.sol\":204:246  mapping (address => Commit) public commits */\n    tag_35:\n      mstore(0x20, 0x01)\n      dup1\n      0x00\n      mstore\n      keccak256(0x00, 0x40)\n      0x00\n      swap2\n      pop\n      swap1\n      pop\n      dup1\n      0x00\n      add\n      sload\n      swap1\n      dup1\n      0x01\n      add\n      0x00\n      swap1\n      sload\n      swap1\n      0x0100\n      exp\n      swap1\n      div\n      0xffffffffffffffff\n      and\n      swap1\n      dup1\n      0x01\n      add\n      0x08\n      swap1\n      sload\n      swap1\n      0x0100\n      exp\n      swap1\n      div\n      0xff\n      and\n      swap1\n      pop\n      dup4\n      jump\t// out\n        /* \"contracts/CommitReveal.sol\":251:522  function commit(bytes32 dataHash) public {... */\n    tag_40:\n        /* \"contracts/CommitReveal.sol\":327:335  dataHash */\n      dup1\n        /* \"contracts/CommitReveal.sol\":298:305  commits */\n      0x01\n        /* \"contracts/CommitReveal.sol\":298:317  commits[msg.sender] */\n      0x00\n        /* \"contracts/CommitReveal.sol\":306:316  msg.sender */\n      caller\n        /* \"contracts/CommitReveal.sol\":298:317  commits[msg.sender] */\n      0xffffffffffffffffffffffffffffffffffffffff\n      and\n      0xffffffffffffffffffffffffffffffffffffffff\n      and\n      dup2\n      mstore\n      0x20\n      add\n      swap1\n      dup2\n      mstore\n      0x20\n      add\n      0x00\n      keccak256\n        /* \"contracts/CommitReveal.sol\":298:324  commits[msg.sender].commit */\n      0x00\n      add\n        /* \"contracts/CommitReveal.sol\":298:335  commits[msg.sender].commit = dataHash */\n      dup2\n      swap1\n      sstore\n      pop\n        /* \"contracts/CommitReveal.sol\":376:388  block.number */\n      number\n        /* \"contracts/CommitReveal.sol\":341:348  commits */\n      0x01\n        /* \"contracts/CommitReveal.sol\":341:360  commits[msg.sender] */\n      0x00\n        /* \"contracts/CommitReveal.sol\":349:359  msg.sender */\n      caller\n        /* \"contracts/CommitReveal.sol\":341:360  commits[msg.sender] */\n      0xffffffffffffffffffffffffffffffffffffffff\n      and\n      0xffffffffffffffffffffffffffffffffffffffff\n      and\n      dup2\n      mstore\n      0x20\n      add\n      swap1\n      dup2\n      mstore\n      0x20\n      add\n      0x00\n      keccak256\n        /* \"contracts/CommitReveal.sol\":341:366  commits[msg.sender].block */\n      0x01\n      add\n      0x00\n        /* \"contracts/CommitReveal.sol\":341:389  commits[msg.sender].block = uint64(block.number) */\n      0x0100\n      exp\n      dup2\n      sload\n      dup2\n      0xffffffffffffffff\n      mul\n      not\n      and\n      swap1\n      dup4\n      0xffffffffffffffff\n      and\n      mul\n      or\n      swap1\n      sstore\n      pop\n        /* \"contracts/CommitReveal.sol\":426:431  false */\n      0x00\n        /* \"contracts/CommitReveal.sol\":395:402  commits */\n      0x01\n        /* \"contracts/CommitReveal.sol\":395:414  commits[msg.sender] */\n      0x00\n        /* \"contracts/CommitReveal.sol\":403:413  msg.sender */\n      caller\n        /* \"contracts/CommitReveal.sol\":395:414  commits[msg.sender] */\n      0xffffffffffffffffffffffffffffffffffffffff\n      and\n      0xffffffffffffffffffffffffffffffffffffffff\n      and\n      dup2\n      mstore\n      0x20\n      add\n      swap1\n      dup2\n      mstore\n      0x20\n      add\n      0x00\n      keccak256\n        /* \"contracts/CommitReveal.sol\":395:423  commits[msg.sender].revealed */\n      0x01\n      add\n      0x08\n        /* \"contracts/CommitReveal.sol\":395:431  commits[msg.sender].revealed = false */\n      0x0100\n      exp\n      dup2\n      sload\n      dup2\n      0xff\n      mul\n      not\n      and\n      swap1\n      dup4\n      iszero\n      iszero\n      mul\n      or\n      swap1\n      sstore\n      pop\n        /* \"contracts/CommitReveal.sol\":442:517  CommitHash(msg.sender,commits[msg.sender].commit,commits[msg.sender].block) */\n      0x3c1a1f8f38335b17f751c6da4ba7d1865f26b3997535176f5080de9fad891603\n        /* \"contracts/CommitReveal.sol\":453:463  msg.sender */\n      caller\n        /* \"contracts/CommitReveal.sol\":464:471  commits */\n      0x01\n        /* \"contracts/CommitReveal.sol\":464:483  commits[msg.sender] */\n      0x00\n        /* \"contracts/CommitReveal.sol\":472:482  msg.sender */\n      caller\n        /* \"contracts/CommitReveal.sol\":464:483  commits[msg.sender] */\n      0xffffffffffffffffffffffffffffffffffffffff\n      and\n      0xffffffffffffffffffffffffffffffffffffffff\n      and\n      dup2\n      mstore\n      0x20\n      add\n      swap1\n      dup2\n      mstore\n      0x20\n      add\n      0x00\n      keccak256\n        /* \"contracts/CommitReveal.sol\":464:490  commits[msg.sender].commit */\n      0x00\n      add\n      sload\n        /* \"contracts/CommitReveal.sol\":491:498  commits */\n      0x01\n        /* \"contracts/CommitReveal.sol\":491:510  commits[msg.sender] */\n      0x00\n        /* \"contracts/CommitReveal.sol\":499:509  msg.sender */\n      caller\n        /* \"contracts/CommitReveal.sol\":491:510  commits[msg.sender] */\n      0xffffffffffffffffffffffffffffffffffffffff\n      and\n      0xffffffffffffffffffffffffffffffffffffffff\n      and\n      dup2\n      mstore\n      0x20\n      add\n      swap1\n      dup2\n      mstore\n      0x20\n      add\n      0x00\n      keccak256\n        /* \"contracts/CommitReveal.sol\":491:516  commits[msg.sender].block */\n      0x01\n      add\n      0x00\n      swap1\n      sload\n      swap1\n      0x0100\n      exp\n      swap1\n      div\n      0xffffffffffffffff\n      and\n        /* \"contracts/CommitReveal.sol\":442:517  CommitHash(msg.sender,commits[msg.sender].commit,commits[msg.sender].block) */\n      mload(0x40)\n      tag_71\n      swap4\n      swap3\n      swap2\n      swap1\n      tag_72\n      jump\t// in\n    tag_71:\n      mload(0x40)\n      dup1\n      swap2\n      sub\n      swap1\n      log1\n        /* \"contracts/CommitReveal.sol\":251:522  function commit(bytes32 dataHash) public {... */\n      pop\n      jump\t// out\n    tag_46:\n      mload(0x40)\n      dup1\n      0x60\n      add\n      0x40\n      mstore\n      dup1\n      0x00\n      dup1\n      not\n      and\n      dup2\n      mstore\n      0x20\n      add\n      and(0xffffffffffffffff, 0x00)\n      dup2\n      mstore\n      0x20\n      add\n      iszero(iszero(0x00))\n      dup2\n      mstore\n      pop\n      swap1\n      jump\t// out\n        /* \"#utility.yul\":7:133   */\n    tag_73:\n        /* \"#utility.yul\":44:51   */\n      0x00\n        /* \"#utility.yul\":84:126   */\n      0xffffffffffffffffffffffffffffffffffffffff\n        /* \"#utility.yul\":77:82   */\n      dup3\n        /* \"#utility.yul\":73:127   */\n      and\n        /* \"#utility.yul\":62:127   */\n      swap1\n      pop\n        /* \"#utility.yul\":7:133   */\n      swap2\n      swap1\n      pop\n      jump\t// out\n        /* \"#utility.yul\":139:235   */\n    tag_74:\n        /* \"#utility.yul\":176:183   */\n      0x00\n        /* \"#utility.yul\":205:229   */\n      tag_113\n        /* \"#utility.yul\":223:228   */\n      dup3\n        /* \"#utility.yul\":205:229   */\n      tag_73\n      jump\t// in\n    tag_113:\n        /* \"#utility.yul\":194:229   */\n      swap1\n      pop\n        /* \"#utility.yul\":139:235   */\n      swap2\n      swap1\n      pop\n      jump\t// out\n        /* \"#utility.yul\":241:359   */\n    tag_75:\n        /* \"#utility.yul\":328:352   */\n      tag_115\n        /* \"#utility.yul\":346:351   */\n      dup2\n        /* \"#utility.yul\":328:352   */\n      tag_74\n      jump\t// in\n    tag_115:\n        /* \"#utility.yul\":323:326   */\n      dup3\n        /* \"#utility.yul\":316:353   */\n      mstore\n        /* \"#utility.yul\":241:359   */\n      pop\n      pop\n      jump\t// out\n        /* \"#utility.yul\":365:587   */\n    tag_14:\n        /* \"#utility.yul\":458:462   */\n      0x00\n        /* \"#utility.yul\":496:498   */\n      0x20\n        /* \"#utility.yul\":485:494   */\n      dup3\n        /* \"#utility.yul\":481:499   */\n      add\n        /* \"#utility.yul\":473:499   */\n      swap1\n      pop\n        /* \"#utility.yul\":509:580   */\n      tag_117\n        /* \"#utility.yul\":577:578   */\n      0x00\n        /* \"#utility.yul\":566:575   */\n      dup4\n        /* \"#utility.yul\":562:579   */\n      add\n        /* \"#utility.yul\":553:559   */\n      dup5\n        /* \"#utility.yul\":509:580   */\n      tag_75\n      jump\t// in\n    tag_117:\n        /* \"#utility.yul\":365:587   */\n      swap3\n      swap2\n      pop\n      pop\n      jump\t// out\n        /* \"#utility.yul\":674:791   */\n    tag_77:\n        /* \"#utility.yul\":783:784   */\n      0x00\n        /* \"#utility.yul\":780:781   */\n      dup1\n        /* \"#utility.yul\":773:785   */\n      revert\n        /* \"#utility.yul\":920:997   */\n    tag_79:\n        /* \"#utility.yul\":957:964   */\n      0x00\n        /* \"#utility.yul\":986:991   */\n      dup2\n        /* \"#utility.yul\":975:991   */\n      swap1\n      pop\n        /* \"#utility.yul\":920:997   */\n      swap2\n      swap1\n      pop\n      jump\t// out\n        /* \"#utility.yul\":1003:1125   */\n    tag_80:\n        /* \"#utility.yul\":1076:1100   */\n      tag_123\n        /* \"#utility.yul\":1094:1099   */\n      dup2\n        /* \"#utility.yul\":1076:1100   */\n      tag_79\n      jump\t// in\n    tag_123:\n        /* \"#utility.yul\":1069:1074   */\n      dup2\n        /* \"#utility.yul\":1066:1101   */\n      eq\n        /* \"#utility.yul\":1056:1119   */\n      tag_124\n      jumpi\n        /* \"#utility.yul\":1115:1116   */\n      0x00\n        /* \"#utility.yul\":1112:1113   */\n      dup1\n        /* \"#utility.yul\":1105:1117   */\n      revert\n        /* \"#utility.yul\":1056:1119   */\n    tag_124:\n        /* \"#utility.yul\":1003:1125   */\n      pop\n      jump\t// out\n        /* \"#utility.yul\":1131:1270   */\n    tag_81:\n        /* \"#utility.yul\":1177:1182   */\n      0x00\n        /* \"#utility.yul\":1215:1221   */\n      dup2\n        /* \"#utility.yul\":1202:1222   */\n      calldataload\n        /* \"#utility.yul\":1193:1222   */\n      swap1\n      pop\n        /* \"#utility.yul\":1231:1264   */\n      tag_126\n        /* \"#utility.yul\":1258:1263   */\n      dup2\n        /* \"#utility.yul\":1231:1264   */\n      tag_80\n      jump\t// in\n    tag_126:\n        /* \"#utility.yul\":1131:1270   */\n      swap3\n      swap2\n      pop\n      pop\n      jump\t// out\n        /* \"#utility.yul\":1276:1605   */\n    tag_17:\n        /* \"#utility.yul\":1335:1341   */\n      0x00\n        /* \"#utility.yul\":1384:1386   */\n      0x20\n        /* \"#utility.yul\":1372:1381   */\n      dup3\n        /* \"#utility.yul\":1363:1370   */\n      dup5\n        /* \"#utility.yul\":1359:1382   */\n      sub\n        /* \"#utility.yul\":1355:1387   */\n      slt\n        /* \"#utility.yul\":1352:1471   */\n      iszero\n      tag_128\n      jumpi\n        /* \"#utility.yul\":1390:1469   */\n      tag_129\n      tag_77\n      jump\t// in\n    tag_129:\n        /* \"#utility.yul\":1352:1471   */\n    tag_128:\n        /* \"#utility.yul\":1510:1511   */\n      0x00\n        /* \"#utility.yul\":1535:1588   */\n      tag_130\n        /* \"#utility.yul\":1580:1587   */\n      dup5\n        /* \"#utility.yul\":1571:1577   */\n      dup3\n        /* \"#utility.yul\":1560:1569   */\n      dup6\n        /* \"#utility.yul\":1556:1578   */\n      add\n        /* \"#utility.yul\":1535:1588   */\n      tag_81\n      jump\t// in\n    tag_130:\n        /* \"#utility.yul\":1525:1588   */\n      swap2\n      pop\n        /* \"#utility.yul\":1481:1598   */\n      pop\n        /* \"#utility.yul\":1276:1605   */\n      swap3\n      swap2\n      pop\n      pop\n      jump\t// out\n        /* \"#utility.yul\":1611:1729   */\n    tag_82:\n        /* \"#utility.yul\":1698:1722   */\n      tag_132\n        /* \"#utility.yul\":1716:1721   */\n      dup2\n        /* \"#utility.yul\":1698:1722   */\n      tag_79\n      jump\t// in\n    tag_132:\n        /* \"#utility.yul\":1693:1696   */\n      dup3\n        /* \"#utility.yul\":1686:1723   */\n      mstore\n        /* \"#utility.yul\":1611:1729   */\n      pop\n      pop\n      jump\t// out\n        /* \"#utility.yul\":1735:1957   */\n    tag_20:\n        /* \"#utility.yul\":1828:1832   */\n      0x00\n        /* \"#utility.yul\":1866:1868   */\n      0x20\n        /* \"#utility.yul\":1855:1864   */\n      dup3\n        /* \"#utility.yul\":1851:1869   */\n      add\n        /* \"#utility.yul\":1843:1869   */\n      swap1\n      pop\n        /* \"#utility.yul\":1879:1950   */\n      tag_134\n        /* \"#utility.yul\":1947:1948   */\n      0x00\n        /* \"#utility.yul\":1936:1945   */\n      dup4\n        /* \"#utility.yul\":1932:1949   */\n      add\n        /* \"#utility.yul\":1923:1929   */\n      dup5\n        /* \"#utility.yul\":1879:1950   */\n      tag_82\n      jump\t// in\n    tag_134:\n        /* \"#utility.yul\":1735:1957   */\n      swap3\n      swap2\n      pop\n      pop\n      jump\t// out\n        /* \"#utility.yul\":1963:2071   */\n    tag_83:\n        /* \"#utility.yul\":2040:2064   */\n      tag_136\n        /* \"#utility.yul\":2058:2063   */\n      dup2\n        /* \"#utility.yul\":2040:2064   */\n      tag_79\n      jump\t// in\n    tag_136:\n        /* \"#utility.yul\":2035:2038   */\n      dup3\n        /* \"#utility.yul\":2028:2065   */\n      mstore\n        /* \"#utility.yul\":1963:2071   */\n      pop\n      pop\n      jump\t// out\n        /* \"#utility.yul\":2077:2178   */\n    tag_84:\n        /* \"#utility.yul\":2113:2120   */\n      0x00\n        /* \"#utility.yul\":2153:2171   */\n      0xffffffffffffffff\n        /* \"#utility.yul\":2146:2151   */\n      dup3\n        /* \"#utility.yul\":2142:2172   */\n      and\n        /* \"#utility.yul\":2131:2172   */\n      swap1\n      pop\n        /* \"#utility.yul\":2077:2178   */\n      swap2\n      swap1\n      pop\n      jump\t// out\n        /* \"#utility.yul\":2184:2289   */\n    tag_85:\n        /* \"#utility.yul\":2259:2282   */\n      tag_139\n        /* \"#utility.yul\":2276:2281   */\n      dup2\n        /* \"#utility.yul\":2259:2282   */\n      tag_84\n      jump\t// in\n    tag_139:\n        /* \"#utility.yul\":2254:2257   */\n      dup3\n        /* \"#utility.yul\":2247:2283   */\n      mstore\n        /* \"#utility.yul\":2184:2289   */\n      pop\n      pop\n      jump\t// out\n        /* \"#utility.yul\":2295:2385   */\n    tag_86:\n        /* \"#utility.yul\":2329:2336   */\n      0x00\n        /* \"#utility.yul\":2372:2377   */\n      dup2\n        /* \"#utility.yul\":2365:2378   */\n      iszero\n        /* \"#utility.yul\":2358:2379   */\n      iszero\n        /* \"#utility.yul\":2347:2379   */\n      swap1\n      pop\n        /* \"#utility.yul\":2295:2385   */\n      swap2\n      swap1\n      pop\n      jump\t// out\n        /* \"#utility.yul\":2391:2490   */\n    tag_87:\n        /* \"#utility.yul\":2462:2483   */\n      tag_142\n        /* \"#utility.yul\":2477:2482   */\n      dup2\n        /* \"#utility.yul\":2462:2483   */\n      tag_86\n      jump\t// in\n    tag_142:\n        /* \"#utility.yul\":2457:2460   */\n      dup3\n        /* \"#utility.yul\":2450:2484   */\n      mstore\n        /* \"#utility.yul\":2391:2490   */\n      pop\n      pop\n      jump\t// out\n        /* \"#utility.yul\":2560:3234   */\n    tag_88:\n        /* \"#utility.yul\":2701:2705   */\n      0x60\n        /* \"#utility.yul\":2696:2699   */\n      dup3\n        /* \"#utility.yul\":2692:2706   */\n      add\n        /* \"#utility.yul\":2790:2794   */\n      0x00\n        /* \"#utility.yul\":2783:2788   */\n      dup3\n        /* \"#utility.yul\":2779:2795   */\n      add\n        /* \"#utility.yul\":2773:2796   */\n      mload\n        /* \"#utility.yul\":2809:2872   */\n      tag_144\n        /* \"#utility.yul\":2866:2870   */\n      0x00\n        /* \"#utility.yul\":2861:2864   */\n      dup6\n        /* \"#utility.yul\":2857:2871   */\n      add\n        /* \"#utility.yul\":2843:2855   */\n      dup3\n        /* \"#utility.yul\":2809:2872   */\n      tag_83\n      jump\t// in\n    tag_144:\n        /* \"#utility.yul\":2716:2882   */\n      pop\n        /* \"#utility.yul\":2965:2969   */\n      0x20\n        /* \"#utility.yul\":2958:2963   */\n      dup3\n        /* \"#utility.yul\":2954:2970   */\n      add\n        /* \"#utility.yul\":2948:2971   */\n      mload\n        /* \"#utility.yul\":2984:3045   */\n      tag_145\n        /* \"#utility.yul\":3039:3043   */\n      0x20\n        /* \"#utility.yul\":3034:3037   */\n      dup6\n        /* \"#utility.yul\":3030:3044   */\n      add\n        /* \"#utility.yul\":3016:3028   */\n      dup3\n        /* \"#utility.yul\":2984:3045   */\n      tag_85\n      jump\t// in\n    tag_145:\n        /* \"#utility.yul\":2892:3055   */\n      pop\n        /* \"#utility.yul\":3141:3145   */\n      0x40\n        /* \"#utility.yul\":3134:3139   */\n      dup3\n        /* \"#utility.yul\":3130:3146   */\n      add\n        /* \"#utility.yul\":3124:3147   */\n      mload\n        /* \"#utility.yul\":3160:3217   */\n      tag_146\n        /* \"#utility.yul\":3211:3215   */\n      0x40\n        /* \"#utility.yul\":3206:3209   */\n      dup6\n        /* \"#utility.yul\":3202:3216   */\n      add\n        /* \"#utility.yul\":3188:3200   */\n      dup3\n        /* \"#utility.yul\":3160:3217   */\n      tag_87\n      jump\t// in\n    tag_146:\n        /* \"#utility.yul\":3065:3227   */\n      pop\n        /* \"#utility.yul\":2670:3234   */\n      pop\n        /* \"#utility.yul\":2560:3234   */\n      pop\n      pop\n      jump\t// out\n        /* \"#utility.yul\":3240:3550   */\n    tag_24:\n        /* \"#utility.yul\":3377:3381   */\n      0x00\n        /* \"#utility.yul\":3415:3417   */\n      0x60\n        /* \"#utility.yul\":3404:3413   */\n      dup3\n        /* \"#utility.yul\":3400:3418   */\n      add\n        /* \"#utility.yul\":3392:3418   */\n      swap1\n      pop\n        /* \"#utility.yul\":3428:3543   */\n      tag_148\n        /* \"#utility.yul\":3540:3541   */\n      0x00\n        /* \"#utility.yul\":3529:3538   */\n      dup4\n        /* \"#utility.yul\":3525:3542   */\n      add\n        /* \"#utility.yul\":3516:3522   */\n      dup5\n        /* \"#utility.yul\":3428:3543   */\n      tag_88\n      jump\t// in\n    tag_148:\n        /* \"#utility.yul\":3240:3550   */\n      swap3\n      swap2\n      pop\n      pop\n      jump\t// out\n        /* \"#utility.yul\":3556:3642   */\n    tag_89:\n        /* \"#utility.yul\":3591:3598   */\n      0x00\n        /* \"#utility.yul\":3631:3635   */\n      0xff\n        /* \"#utility.yul\":3624:3629   */\n      dup3\n        /* \"#utility.yul\":3620:3636   */\n      and\n        /* \"#utility.yul\":3609:3636   */\n      swap1\n      pop\n        /* \"#utility.yul\":3556:3642   */\n      swap2\n      swap1\n      pop\n      jump\t// out\n        /* \"#utility.yul\":3648:3760   */\n    tag_90:\n        /* \"#utility.yul\":3731:3753   */\n      tag_151\n        /* \"#utility.yul\":3747:3752   */\n      dup2\n        /* \"#utility.yul\":3731:3753   */\n      tag_89\n      jump\t// in\n    tag_151:\n        /* \"#utility.yul\":3726:3729   */\n      dup3\n        /* \"#utility.yul\":3719:3754   */\n      mstore\n        /* \"#utility.yul\":3648:3760   */\n      pop\n      pop\n      jump\t// out\n        /* \"#utility.yul\":3766:3980   */\n    tag_28:\n        /* \"#utility.yul\":3855:3859   */\n      0x00\n        /* \"#utility.yul\":3893:3895   */\n      0x20\n        /* \"#utility.yul\":3882:3891   */\n      dup3\n        /* \"#utility.yul\":3878:3896   */\n      add\n        /* \"#utility.yul\":3870:3896   */\n      swap1\n      pop\n        /* \"#utility.yul\":3906:3973   */\n      tag_153\n        /* \"#utility.yul\":3970:3971   */\n      0x00\n        /* \"#utility.yul\":3959:3968   */\n      dup4\n        /* \"#utility.yul\":3955:3972   */\n      add\n        /* \"#utility.yul\":3946:3952   */\n      dup5\n        /* \"#utility.yul\":3906:3973   */\n      tag_90\n      jump\t// in\n    tag_153:\n        /* \"#utility.yul\":3766:3980   */\n      swap3\n      swap2\n      pop\n      pop\n      jump\t// out\n        /* \"#utility.yul\":3986:4108   */\n    tag_91:\n        /* \"#utility.yul\":4059:4083   */\n      tag_155\n        /* \"#utility.yul\":4077:4082   */\n      dup2\n        /* \"#utility.yul\":4059:4083   */\n      tag_74\n      jump\t// in\n    tag_155:\n        /* \"#utility.yul\":4052:4057   */\n      dup2\n        /* \"#utility.yul\":4049:4084   */\n      eq\n        /* \"#utility.yul\":4039:4102   */\n      tag_156\n      jumpi\n        /* \"#utility.yul\":4098:4099   */\n      0x00\n        /* \"#utility.yul\":4095:4096   */\n      dup1\n        /* \"#utility.yul\":4088:4100   */\n      revert\n        /* \"#utility.yul\":4039:4102   */\n    tag_156:\n        /* \"#utility.yul\":3986:4108   */\n      pop\n      jump\t// out\n        /* \"#utility.yul\":4114:4253   */\n    tag_92:\n        /* \"#utility.yul\":4160:4165   */\n      0x00\n        /* \"#utility.yul\":4198:4204   */\n      dup2\n        /* \"#utility.yul\":4185:4205   */\n      calldataload\n        /* \"#utility.yul\":4176:4205   */\n      swap1\n      pop\n        /* \"#utility.yul\":4214:4247   */\n      tag_158\n        /* \"#utility.yul\":4241:4246   */\n      dup2\n        /* \"#utility.yul\":4214:4247   */\n      tag_91\n      jump\t// in\n    tag_158:\n        /* \"#utility.yul\":4114:4253   */\n      swap3\n      swap2\n      pop\n      pop\n      jump\t// out\n        /* \"#utility.yul\":4259:4588   */\n    tag_34:\n        /* \"#utility.yul\":4318:4324   */\n      0x00\n        /* \"#utility.yul\":4367:4369   */\n      0x20\n        /* \"#utility.yul\":4355:4364   */\n      dup3\n        /* \"#utility.yul\":4346:4353   */\n      dup5\n        /* \"#utility.yul\":4342:4365   */\n      sub\n        /* \"#utility.yul\":4338:4370   */\n      slt\n        /* \"#utility.yul\":4335:4454   */\n      iszero\n      tag_160\n      jumpi\n        /* \"#utility.yul\":4373:4452   */\n      tag_161\n      tag_77\n      jump\t// in\n    tag_161:\n        /* \"#utility.yul\":4335:4454   */\n    tag_160:\n        /* \"#utility.yul\":4493:4494   */\n      0x00\n        /* \"#utility.yul\":4518:4571   */\n      tag_162\n        /* \"#utility.yul\":4563:4570   */\n      dup5\n        /* \"#utility.yul\":4554:4560   */\n      dup3\n        /* \"#utility.yul\":4543:4552   */\n      dup6\n        /* \"#utility.yul\":4539:4561   */\n      add\n        /* \"#utility.yul\":4518:4571   */\n      tag_92\n      jump\t// in\n    tag_162:\n        /* \"#utility.yul\":4508:4571   */\n      swap2\n      pop\n        /* \"#utility.yul\":4464:4581   */\n      pop\n        /* \"#utility.yul\":4259:4588   */\n      swap3\n      swap2\n      pop\n      pop\n      jump\t// out\n        /* \"#utility.yul\":4594:4709   */\n    tag_93:\n        /* \"#utility.yul\":4679:4702   */\n      tag_164\n        /* \"#utility.yul\":4696:4701   */\n      dup2\n        /* \"#utility.yul\":4679:4702   */\n      tag_84\n      jump\t// in\n    tag_164:\n        /* \"#utility.yul\":4674:4677   */\n      dup3\n        /* \"#utility.yul\":4667:4703   */\n      mstore\n        /* \"#utility.yul\":4594:4709   */\n      pop\n      pop\n      jump\t// out\n        /* \"#utility.yul\":4715:4824   */\n    tag_94:\n        /* \"#utility.yul\":4796:4817   */\n      tag_166\n        /* \"#utility.yul\":4811:4816   */\n      dup2\n        /* \"#utility.yul\":4796:4817   */\n      tag_86\n      jump\t// in\n    tag_166:\n        /* \"#utility.yul\":4791:4794   */\n      dup3\n        /* \"#utility.yul\":4784:4818   */\n      mstore\n        /* \"#utility.yul\":4715:4824   */\n      pop\n      pop\n      jump\t// out\n        /* \"#utility.yul\":4830:5256   */\n    tag_37:\n        /* \"#utility.yul\":4971:4975   */\n      0x00\n        /* \"#utility.yul\":5009:5011   */\n      0x60\n        /* \"#utility.yul\":4998:5007   */\n      dup3\n        /* \"#utility.yul\":4994:5012   */\n      add\n        /* \"#utility.yul\":4986:5012   */\n      swap1\n      pop\n        /* \"#utility.yul\":5022:5093   */\n      tag_168\n        /* \"#utility.yul\":5090:5091   */\n      0x00\n        /* \"#utility.yul\":5079:5088   */\n      dup4\n        /* \"#utility.yul\":5075:5092   */\n      add\n        /* \"#utility.yul\":5066:5072   */\n      dup7\n        /* \"#utility.yul\":5022:5093   */\n      tag_82\n      jump\t// in\n    tag_168:\n        /* \"#utility.yul\":5103:5173   */\n      tag_169\n        /* \"#utility.yul\":5169:5171   */\n      0x20\n        /* \"#utility.yul\":5158:5167   */\n      dup4\n        /* \"#utility.yul\":5154:5172   */\n      add\n        /* \"#utility.yul\":5145:5151   */\n      dup6\n        /* \"#utility.yul\":5103:5173   */\n      tag_93\n      jump\t// in\n    tag_169:\n        /* \"#utility.yul\":5183:5249   */\n      tag_170\n        /* \"#utility.yul\":5245:5247   */\n      0x40\n        /* \"#utility.yul\":5234:5243   */\n      dup4\n        /* \"#utility.yul\":5230:5248   */\n      add\n        /* \"#utility.yul\":5221:5227   */\n      dup5\n        /* \"#utility.yul\":5183:5249   */\n      tag_94\n      jump\t// in\n    tag_170:\n        /* \"#utility.yul\":4830:5256   */\n      swap5\n      swap4\n      pop\n      pop\n      pop\n      pop\n      jump\t// out\n        /* \"#utility.yul\":5262:5341   */\n    tag_95:\n        /* \"#utility.yul\":5301:5308   */\n      0x00\n        /* \"#utility.yul\":5330:5335   */\n      dup2\n        /* \"#utility.yul\":5319:5335   */\n      swap1\n      pop\n        /* \"#utility.yul\":5262:5341   */\n      swap2\n      swap1\n      pop\n      jump\t// out\n        /* \"#utility.yul\":5347:5504   */\n    tag_96:\n        /* \"#utility.yul\":5452:5497   */\n      tag_173\n        /* \"#utility.yul\":5472:5496   */\n      tag_174\n        /* \"#utility.yul\":5490:5495   */\n      dup3\n        /* \"#utility.yul\":5472:5496   */\n      tag_79\n      jump\t// in\n    tag_174:\n        /* \"#utility.yul\":5452:5497   */\n      tag_95\n      jump\t// in\n    tag_173:\n        /* \"#utility.yul\":5447:5450   */\n      dup3\n        /* \"#utility.yul\":5440:5498   */\n      mstore\n        /* \"#utility.yul\":5347:5504   */\n      pop\n      pop\n      jump\t// out\n        /* \"#utility.yul\":5510:5766   */\n    tag_44:\n        /* \"#utility.yul\":5622:5625   */\n      0x00\n        /* \"#utility.yul\":5637:5712   */\n      tag_176\n        /* \"#utility.yul\":5708:5711   */\n      dup3\n        /* \"#utility.yul\":5699:5705   */\n      dup5\n        /* \"#utility.yul\":5637:5712   */\n      tag_96\n      jump\t// in\n    tag_176:\n        /* \"#utility.yul\":5737:5739   */\n      0x20\n        /* \"#utility.yul\":5732:5735   */\n      dup3\n        /* \"#utility.yul\":5728:5740   */\n      add\n        /* \"#utility.yul\":5721:5740   */\n      swap2\n      pop\n        /* \"#utility.yul\":5757:5760   */\n      dup2\n        /* \"#utility.yul\":5750:5760   */\n      swap1\n      pop\n        /* \"#utility.yul\":5510:5766   */\n      swap3\n      swap2\n      pop\n      pop\n      jump\t// out\n        /* \"#utility.yul\":5772:5941   */\n    tag_97:\n        /* \"#utility.yul\":5856:5867   */\n      0x00\n        /* \"#utility.yul\":5890:5896   */\n      dup3\n        /* \"#utility.yul\":5885:5888   */\n      dup3\n        /* \"#utility.yul\":5878:5897   */\n      mstore\n        /* \"#utility.yul\":5930:5934   */\n      0x20\n        /* \"#utility.yul\":5925:5928   */\n      dup3\n        /* \"#utility.yul\":5921:5935   */\n      add\n        /* \"#utility.yul\":5906:5935   */\n      swap1\n      pop\n        /* \"#utility.yul\":5772:5941   */\n      swap3\n      swap2\n      pop\n      pop\n      jump\t// out\n        /* \"#utility.yul\":5947:6172   */\n    tag_98:\n        /* \"#utility.yul\":6087:6121   */\n      0x436f6d6d697452657665616c3a3a72657665616c3a20416c7265616479207265\n        /* \"#utility.yul\":6083:6084   */\n      0x00\n        /* \"#utility.yul\":6075:6081   */\n      dup3\n        /* \"#utility.yul\":6071:6085   */\n      add\n        /* \"#utility.yul\":6064:6122   */\n      mstore\n        /* \"#utility.yul\":6156:6164   */\n      0x7665616c65640000000000000000000000000000000000000000000000000000\n        /* \"#utility.yul\":6151:6153   */\n      0x20\n        /* \"#utility.yul\":6143:6149   */\n      dup3\n        /* \"#utility.yul\":6139:6154   */\n      add\n        /* \"#utility.yul\":6132:6165   */\n      mstore\n        /* \"#utility.yul\":5947:6172   */\n      pop\n      jump\t// out\n        /* \"#utility.yul\":6178:6544   */\n    tag_99:\n        /* \"#utility.yul\":6320:6323   */\n      0x00\n        /* \"#utility.yul\":6341:6408   */\n      tag_180\n        /* \"#utility.yul\":6405:6407   */\n      0x26\n        /* \"#utility.yul\":6400:6403   */\n      dup4\n        /* \"#utility.yul\":6341:6408   */\n      tag_97\n      jump\t// in\n    tag_180:\n        /* \"#utility.yul\":6334:6408   */\n      swap2\n      pop\n        /* \"#utility.yul\":6417:6510   */\n      tag_181\n        /* \"#utility.yul\":6506:6509   */\n      dup3\n        /* \"#utility.yul\":6417:6510   */\n      tag_98\n      jump\t// in\n    tag_181:\n        /* \"#utility.yul\":6535:6537   */\n      0x40\n        /* \"#utility.yul\":6530:6533   */\n      dup3\n        /* \"#utility.yul\":6526:6538   */\n      add\n        /* \"#utility.yul\":6519:6538   */\n      swap1\n      pop\n        /* \"#utility.yul\":6178:6544   */\n      swap2\n      swap1\n      pop\n      jump\t// out\n        /* \"#utility.yul\":6550:6969   */\n    tag_51:\n        /* \"#utility.yul\":6716:6720   */\n      0x00\n        /* \"#utility.yul\":6754:6756   */\n      0x20\n        /* \"#utility.yul\":6743:6752   */\n      dup3\n        /* \"#utility.yul\":6739:6757   */\n      add\n        /* \"#utility.yul\":6731:6757   */\n      swap1\n      pop\n        /* \"#utility.yul\":6803:6812   */\n      dup2\n        /* \"#utility.yul\":6797:6801   */\n      dup2\n        /* \"#utility.yul\":6793:6813   */\n      sub\n        /* \"#utility.yul\":6789:6790   */\n      0x00\n        /* \"#utility.yul\":6778:6787   */\n      dup4\n        /* \"#utility.yul\":6774:6791   */\n      add\n        /* \"#utility.yul\":6767:6814   */\n      mstore\n        /* \"#utility.yul\":6831:6962   */\n      tag_183\n        /* \"#utility.yul\":6957:6961   */\n      dup2\n        /* \"#utility.yul\":6831:6962   */\n      tag_99\n      jump\t// in\n    tag_183:\n        /* \"#utility.yul\":6823:6962   */\n      swap1\n      pop\n        /* \"#utility.yul\":6550:6969   */\n      swap2\n      swap1\n      pop\n      jump\t// out\n        /* \"#utility.yul\":6975:7219   */\n    tag_100:\n        /* \"#utility.yul\":7115:7149   */\n      0x436f6d6d697452657665616c3a3a72657665616c3a2052657665616c65642068\n        /* \"#utility.yul\":7111:7112   */\n      0x00\n        /* \"#utility.yul\":7103:7109   */\n      dup3\n        /* \"#utility.yul\":7099:7113   */\n      add\n        /* \"#utility.yul\":7092:7150   */\n      mstore\n        /* \"#utility.yul\":7184:7211   */\n      0x61736820646f6573206e6f74206d6174636820636f6d6d697400000000000000\n        /* \"#utility.yul\":7179:7181   */\n      0x20\n        /* \"#utility.yul\":7171:7177   */\n      dup3\n        /* \"#utility.yul\":7167:7182   */\n      add\n        /* \"#utility.yul\":7160:7212   */\n      mstore\n        /* \"#utility.yul\":6975:7219   */\n      pop\n      jump\t// out\n        /* \"#utility.yul\":7225:7591   */\n    tag_101:\n        /* \"#utility.yul\":7367:7370   */\n      0x00\n        /* \"#utility.yul\":7388:7455   */\n      tag_186\n        /* \"#utility.yul\":7452:7454   */\n      0x39\n        /* \"#utility.yul\":7447:7450   */\n      dup4\n        /* \"#utility.yul\":7388:7455   */\n      tag_97\n      jump\t// in\n    tag_186:\n        /* \"#utility.yul\":7381:7455   */\n      swap2\n      pop\n        /* \"#utility.yul\":7464:7557   */\n      tag_187\n        /* \"#utility.yul\":7553:7556   */\n      dup3\n        /* \"#utility.yul\":7464:7557   */\n      tag_100\n      jump\t// in\n    tag_187:\n        /* \"#utility.yul\":7582:7584   */\n      0x40\n        /* \"#utility.yul\":7577:7580   */\n      dup3\n        /* \"#utility.yul\":7573:7585   */\n      add\n        /* \"#utility.yul\":7566:7585   */\n      swap1\n      pop\n        /* \"#utility.yul\":7225:7591   */\n      swap2\n      swap1\n      pop\n      jump\t// out\n        /* \"#utility.yul\":7597:8016   */\n    tag_55:\n        /* \"#utility.yul\":7763:7767   */\n      0x00\n        /* \"#utility.yul\":7801:7803   */\n      0x20\n        /* \"#utility.yul\":7790:7799   */\n      dup3\n        /* \"#utility.yul\":7786:7804   */\n      add\n        /* \"#utility.yul\":7778:7804   */\n      swap1\n      pop\n        /* \"#utility.yul\":7850:7859   */\n      dup2\n        /* \"#utility.yul\":7844:7848   */\n      dup2\n        /* \"#utility.yul\":7840:7860   */\n      sub\n        /* \"#utility.yul\":7836:7837   */\n      0x00\n        /* \"#utility.yul\":7825:7834   */\n      dup4\n        /* \"#utility.yul\":7821:7838   */\n      add\n        /* \"#utility.yul\":7814:7861   */\n      mstore\n        /* \"#utility.yul\":7878:8009   */\n      tag_189\n        /* \"#utility.yul\":8004:8008   */\n      dup2\n        /* \"#utility.yul\":7878:8009   */\n      tag_101\n      jump\t// in\n    tag_189:\n        /* \"#utility.yul\":7870:8009   */\n      swap1\n      pop\n        /* \"#utility.yul\":7597:8016   */\n      swap2\n      swap1\n      pop\n      jump\t// out\n        /* \"#utility.yul\":8022:8312   */\n    tag_102:\n        /* \"#utility.yul\":8162:8196   */\n      0x436f6d6d697452657665616c3a3a72657665616c3a2052657665616c20616e64\n        /* \"#utility.yul\":8158:8159   */\n      0x00\n        /* \"#utility.yul\":8150:8156   */\n      dup3\n        /* \"#utility.yul\":8146:8160   */\n      add\n        /* \"#utility.yul\":8139:8197   */\n      mstore\n        /* \"#utility.yul\":8231:8265   */\n      0x20636f6d6d69742068617070656e6564206f6e207468652073616d6520626c6f\n        /* \"#utility.yul\":8226:8228   */\n      0x20\n        /* \"#utility.yul\":8218:8224   */\n      dup3\n        /* \"#utility.yul\":8214:8229   */\n      add\n        /* \"#utility.yul\":8207:8266   */\n      mstore\n        /* \"#utility.yul\":8300:8304   */\n      0x636b000000000000000000000000000000000000000000000000000000000000\n        /* \"#utility.yul\":8295:8297   */\n      0x40\n        /* \"#utility.yul\":8287:8293   */\n      dup3\n        /* \"#utility.yul\":8283:8298   */\n      add\n        /* \"#utility.yul\":8276:8305   */\n      mstore\n        /* \"#utility.yul\":8022:8312   */\n      pop\n      jump\t// out\n        /* \"#utility.yul\":8318:8684   */\n    tag_103:\n        /* \"#utility.yul\":8460:8463   */\n      0x00\n        /* \"#utility.yul\":8481:8548   */\n      tag_192\n        /* \"#utility.yul\":8545:8547   */\n      0x42\n        /* \"#utility.yul\":8540:8543   */\n      dup4\n        /* \"#utility.yul\":8481:8548   */\n      tag_97\n      jump\t// in\n    tag_192:\n        /* \"#utility.yul\":8474:8548   */\n      swap2\n      pop\n        /* \"#utility.yul\":8557:8650   */\n      tag_193\n        /* \"#utility.yul\":8646:8649   */\n      dup3\n        /* \"#utility.yul\":8557:8650   */\n      tag_102\n      jump\t// in\n    tag_193:\n        /* \"#utility.yul\":8675:8677   */\n      0x60\n        /* \"#utility.yul\":8670:8673   */\n      dup3\n        /* \"#utility.yul\":8666:8678   */\n      add\n        /* \"#utility.yul\":8659:8678   */\n      swap1\n      pop\n        /* \"#utility.yul\":8318:8684   */\n      swap2\n      swap1\n      pop\n      jump\t// out\n        /* \"#utility.yul\":8690:9109   */\n    tag_58:\n        /* \"#utility.yul\":8856:8860   */\n      0x00\n        /* \"#utility.yul\":8894:8896   */\n      0x20\n        /* \"#utility.yul\":8883:8892   */\n      dup3\n        /* \"#utility.yul\":8879:8897   */\n      add\n        /* \"#utility.yul\":8871:8897   */\n      swap1\n      pop\n        /* \"#utility.yul\":8943:8952   */\n      dup2\n        /* \"#utility.yul\":8937:8941   */\n      dup2\n        /* \"#utility.yul\":8933:8953   */\n      sub\n        /* \"#utility.yul\":8929:8930   */\n      0x00\n        /* \"#utility.yul\":8918:8927   */\n      dup4\n        /* \"#utility.yul\":8914:8931   */\n      add\n        /* \"#utility.yul\":8907:8954   */\n      mstore\n        /* \"#utility.yul\":8971:9102   */\n      tag_195\n        /* \"#utility.yul\":9097:9101   */\n      dup2\n        /* \"#utility.yul\":8971:9102   */\n      tag_103\n      jump\t// in\n    tag_195:\n        /* \"#utility.yul\":8963:9102   */\n      swap1\n      pop\n        /* \"#utility.yul\":8690:9109   */\n      swap2\n      swap1\n      pop\n      jump\t// out\n        /* \"#utility.yul\":9115:9295   */\n    tag_104:\n        /* \"#utility.yul\":9163:9240   */\n      0x4e487b7100000000000000000000000000000000000000000000000000000000\n        /* \"#utility.yul\":9160:9161   */\n      0x00\n        /* \"#utility.yul\":9153:9241   */\n      mstore\n        /* \"#utility.yul\":9260:9264   */\n      0x11\n        /* \"#utility.yul\":9257:9258   */\n      0x04\n        /* \"#utility.yul\":9250:9265   */\n      mstore\n        /* \"#utility.yul\":9284:9288   */\n      0x24\n        /* \"#utility.yul\":9281:9282   */\n      0x00\n        /* \"#utility.yul\":9274:9289   */\n      revert\n        /* \"#utility.yul\":9301:9506   */\n    tag_60:\n        /* \"#utility.yul\":9340:9343   */\n      0x00\n        /* \"#utility.yul\":9359:9378   */\n      tag_198\n        /* \"#utility.yul\":9376:9377   */\n      dup3\n        /* \"#utility.yul\":9359:9378   */\n      tag_84\n      jump\t// in\n    tag_198:\n        /* \"#utility.yul\":9354:9378   */\n      swap2\n      pop\n        /* \"#utility.yul\":9392:9411   */\n      tag_199\n        /* \"#utility.yul\":9409:9410   */\n      dup4\n        /* \"#utility.yul\":9392:9411   */\n      tag_84\n      jump\t// in\n    tag_199:\n        /* \"#utility.yul\":9387:9411   */\n      swap3\n      pop\n        /* \"#utility.yul\":9434:9435   */\n      dup3\n        /* \"#utility.yul\":9431:9432   */\n      dup3\n        /* \"#utility.yul\":9427:9436   */\n      add\n        /* \"#utility.yul\":9420:9436   */\n      swap1\n      pop\n        /* \"#utility.yul\":9457:9475   */\n      0xffffffffffffffff\n        /* \"#utility.yul\":9452:9455   */\n      dup2\n        /* \"#utility.yul\":9449:9476   */\n      gt\n        /* \"#utility.yul\":9446:9499   */\n      iszero\n      tag_200\n      jumpi\n        /* \"#utility.yul\":9479:9497   */\n      tag_201\n      tag_104\n      jump\t// in\n    tag_201:\n        /* \"#utility.yul\":9446:9499   */\n    tag_200:\n        /* \"#utility.yul\":9301:9506   */\n      swap3\n      swap2\n      pop\n      pop\n      jump\t// out\n        /* \"#utility.yul\":9512:9738   */\n    tag_105:\n        /* \"#utility.yul\":9652:9686   */\n      0x436f6d6d697452657665616c3a3a72657665616c3a2052657665616c65642074\n        /* \"#utility.yul\":9648:9649   */\n      0x00\n        /* \"#utility.yul\":9640:9646   */\n      dup3\n        /* \"#utility.yul\":9636:9650   */\n      add\n        /* \"#utility.yul\":9629:9687   */\n      mstore\n        /* \"#utility.yul\":9721:9730   */\n      0x6f6f206c61746500000000000000000000000000000000000000000000000000\n        /* \"#utility.yul\":9716:9718   */\n      0x20\n        /* \"#utility.yul\":9708:9714   */\n      dup3\n        /* \"#utility.yul\":9704:9719   */\n      add\n        /* \"#utility.yul\":9697:9731   */\n      mstore\n        /* \"#utility.yul\":9512:9738   */\n      pop\n      jump\t// out\n        /* \"#utility.yul\":9744:10110   */\n    tag_106:\n        /* \"#utility.yul\":9886:9889   */\n      0x00\n        /* \"#utility.yul\":9907:9974   */\n      tag_204\n        /* \"#utility.yul\":9971:9973   */\n      0x27\n        /* \"#utility.yul\":9966:9969   */\n      dup4\n        /* \"#utility.yul\":9907:9974   */\n      tag_97\n      jump\t// in\n    tag_204:\n        /* \"#utility.yul\":9900:9974   */\n      swap2\n      pop\n        /* \"#utility.yul\":9983:10076   */\n      tag_205\n        /* \"#utility.yul\":10072:10075   */\n      dup3\n        /* \"#utility.yul\":9983:10076   */\n      tag_105\n      jump\t// in\n    tag_205:\n        /* \"#utility.yul\":10101:10103   */\n      0x40\n        /* \"#utility.yul\":10096:10099   */\n      dup3\n        /* \"#utility.yul\":10092:10104   */\n      add\n        /* \"#utility.yul\":10085:10104   */\n      swap1\n      pop\n        /* \"#utility.yul\":9744:10110   */\n      swap2\n      swap1\n      pop\n      jump\t// out\n        /* \"#utility.yul\":10116:10535   */\n    tag_63:\n        /* \"#utility.yul\":10282:10286   */\n      0x00\n        /* \"#utility.yul\":10320:10322   */\n      0x20\n        /* \"#utility.yul\":10309:10318   */\n      dup3\n        /* \"#utility.yul\":10305:10323   */\n      add\n        /* \"#utility.yul\":10297:10323   */\n      swap1\n      pop\n        /* \"#utility.yul\":10369:10378   */\n      dup2\n        /* \"#utility.yul\":10363:10367   */\n      dup2\n        /* \"#utility.yul\":10359:10379   */\n      sub\n        /* \"#utility.yul\":10355:10356   */\n      0x00\n        /* \"#utility.yul\":10344:10353   */\n      dup4\n        /* \"#utility.yul\":10340:10357   */\n      add\n        /* \"#utility.yul\":10333:10380   */\n      mstore\n        /* \"#utility.yul\":10397:10528   */\n      tag_207\n        /* \"#utility.yul\":10523:10527   */\n      dup2\n        /* \"#utility.yul\":10397:10528   */\n      tag_106\n      jump\t// in\n    tag_207:\n        /* \"#utility.yul\":10389:10528   */\n      swap1\n      pop\n        /* \"#utility.yul\":10116:10535   */\n      swap2\n      swap1\n      pop\n      jump\t// out\n        /* \"#utility.yul\":10541:10938   */\n    tag_65:\n        /* \"#utility.yul\":10681:10684   */\n      0x00\n        /* \"#utility.yul\":10696:10771   */\n      tag_209\n        /* \"#utility.yul\":10767:10770   */\n      dup3\n        /* \"#utility.yul\":10758:10764   */\n      dup6\n        /* \"#utility.yul\":10696:10771   */\n      tag_96\n      jump\t// in\n    tag_209:\n        /* \"#utility.yul\":10796:10798   */\n      0x20\n        /* \"#utility.yul\":10791:10794   */\n      dup3\n        /* \"#utility.yul\":10787:10799   */\n      add\n        /* \"#utility.yul\":10780:10799   */\n      swap2\n      pop\n        /* \"#utility.yul\":10809:10884   */\n      tag_210\n        /* \"#utility.yul\":10880:10883   */\n      dup3\n        /* \"#utility.yul\":10871:10877   */\n      dup5\n        /* \"#utility.yul\":10809:10884   */\n      tag_96\n      jump\t// in\n    tag_210:\n        /* \"#utility.yul\":10909:10911   */\n      0x20\n        /* \"#utility.yul\":10904:10907   */\n      dup3\n        /* \"#utility.yul\":10900:10912   */\n      add\n        /* \"#utility.yul\":10893:10912   */\n      swap2\n      pop\n        /* \"#utility.yul\":10929:10932   */\n      dup2\n        /* \"#utility.yul\":10922:10932   */\n      swap1\n      pop\n        /* \"#utility.yul\":10541:10938   */\n      swap4\n      swap3\n      pop\n      pop\n      pop\n      jump\t// out\n        /* \"#utility.yul\":10944:11021   */\n    tag_107:\n        /* \"#utility.yul\":10981:10988   */\n      0x00\n        /* \"#utility.yul\":11010:11015   */\n      dup2\n        /* \"#utility.yul\":10999:11015   */\n      swap1\n      pop\n        /* \"#utility.yul\":10944:11021   */\n      swap2\n      swap1\n      pop\n      jump\t// out\n        /* \"#utility.yul\":11027:11207   */\n    tag_108:\n        /* \"#utility.yul\":11075:11152   */\n      0x4e487b7100000000000000000000000000000000000000000000000000000000\n        /* \"#utility.yul\":11072:11073   */\n      0x00\n        /* \"#utility.yul\":11065:11153   */\n      mstore\n        /* \"#utility.yul\":11172:11176   */\n      0x12\n        /* \"#utility.yul\":11169:11170   */\n      0x04\n        /* \"#utility.yul\":11162:11177   */\n      mstore\n        /* \"#utility.yul\":11196:11200   */\n      0x24\n        /* \"#utility.yul\":11193:11194   */\n      0x00\n        /* \"#utility.yul\":11186:11201   */\n      revert\n        /* \"#utility.yul\":11213:11389   */\n    tag_67:\n        /* \"#utility.yul\":11245:11246   */\n      0x00\n        /* \"#utility.yul\":11262:11282   */\n      tag_214\n        /* \"#utility.yul\":11280:11281   */\n      dup3\n        /* \"#utility.yul\":11262:11282   */\n      tag_107\n      jump\t// in\n    tag_214:\n        /* \"#utility.yul\":11257:11282   */\n      swap2\n      pop\n        /* \"#utility.yul\":11296:11316   */\n      tag_215\n        /* \"#utility.yul\":11314:11315   */\n      dup4\n        /* \"#utility.yul\":11296:11316   */\n      tag_107\n      jump\t// in\n    tag_215:\n        /* \"#utility.yul\":11291:11316   */\n      swap3\n      pop\n        /* \"#utility.yul\":11335:11336   */\n      dup3\n        /* \"#utility.yul\":11325:11360   */\n      tag_216\n      jumpi\n        /* \"#utility.yul\":11340:11358   */\n      tag_217\n      tag_108\n      jump\t// in\n    tag_217:\n        /* \"#utility.yul\":11325:11360   */\n    tag_216:\n        /* \"#utility.yul\":11381:11382   */\n      dup3\n        /* \"#utility.yul\":11378:11379   */\n      dup3\n        /* \"#utility.yul\":11374:11383   */\n      mod\n        /* \"#utility.yul\":11369:11383   */\n      swap1\n      pop\n        /* \"#utility.yul\":11213:11389   */\n      swap3\n      swap2\n      pop\n      pop\n      jump\t// out\n        /* \"#utility.yul\":11395:11513   */\n    tag_109:\n        /* \"#utility.yul\":11482:11506   */\n      tag_219\n        /* \"#utility.yul\":11500:11505   */\n      dup2\n        /* \"#utility.yul\":11482:11506   */\n      tag_107\n      jump\t// in\n    tag_219:\n        /* \"#utility.yul\":11477:11480   */\n      dup3\n        /* \"#utility.yul\":11470:11507   */\n      mstore\n        /* \"#utility.yul\":11395:11513   */\n      pop\n      pop\n      jump\t// out\n        /* \"#utility.yul\":11519:11961   */\n    tag_69:\n        /* \"#utility.yul\":11668:11672   */\n      0x00\n        /* \"#utility.yul\":11706:11708   */\n      0x60\n        /* \"#utility.yul\":11695:11704   */\n      dup3\n        /* \"#utility.yul\":11691:11709   */\n      add\n        /* \"#utility.yul\":11683:11709   */\n      swap1\n      pop\n        /* \"#utility.yul\":11719:11790   */\n      tag_221\n        /* \"#utility.yul\":11787:11788   */\n      0x00\n        /* \"#utility.yul\":11776:11785   */\n      dup4\n        /* \"#utility.yul\":11772:11789   */\n      add\n        /* \"#utility.yul\":11763:11769   */\n      dup7\n        /* \"#utility.yul\":11719:11790   */\n      tag_75\n      jump\t// in\n    tag_221:\n        /* \"#utility.yul\":11800:11872   */\n      tag_222\n        /* \"#utility.yul\":11868:11870   */\n      0x20\n        /* \"#utility.yul\":11857:11866   */\n      dup4\n        /* \"#utility.yul\":11853:11871   */\n      add\n        /* \"#utility.yul\":11844:11850   */\n      dup6\n        /* \"#utility.yul\":11800:11872   */\n      tag_82\n      jump\t// in\n    tag_222:\n        /* \"#utility.yul\":11882:11954   */\n      tag_223\n        /* \"#utility.yul\":11950:11952   */\n      0x40\n        /* \"#utility.yul\":11939:11948   */\n      dup4\n        /* \"#utility.yul\":11935:11953   */\n      add\n        /* \"#utility.yul\":11926:11932   */\n      dup5\n        /* \"#utility.yul\":11882:11954   */\n      tag_109\n      jump\t// in\n    tag_223:\n        /* \"#utility.yul\":11519:11961   */\n      swap5\n      swap4\n      pop\n      pop\n      pop\n      pop\n      jump\t// out\n        /* \"#utility.yul\":11967:12405   */\n    tag_72:\n        /* \"#utility.yul\":12114:12118   */\n      0x00\n        /* \"#utility.yul\":12152:12154   */\n      0x60\n        /* \"#utility.yul\":12141:12150   */\n      dup3\n        /* \"#utility.yul\":12137:12155   */\n      add\n        /* \"#utility.yul\":12129:12155   */\n      swap1\n      pop\n        /* \"#utility.yul\":12165:12236   */\n      tag_225\n        /* \"#utility.yul\":12233:12234   */\n      0x00\n        /* \"#utility.yul\":12222:12231   */\n      dup4\n        /* \"#utility.yul\":12218:12235   */\n      add\n        /* \"#utility.yul\":12209:12215   */\n      dup7\n        /* \"#utility.yul\":12165:12236   */\n      tag_75\n      jump\t// in\n    tag_225:\n        /* \"#utility.yul\":12246:12318   */\n      tag_226\n        /* \"#utility.yul\":12314:12316   */\n      0x20\n        /* \"#utility.yul\":12303:12312   */\n      dup4\n        /* \"#utility.yul\":12299:12317   */\n      add\n        /* \"#utility.yul\":12290:12296   */\n      dup6\n        /* \"#utility.yul\":12246:12318   */\n      tag_82\n      jump\t// in\n    tag_226:\n        /* \"#utility.yul\":12328:12398   */\n      tag_227\n        /* \"#utility.yul\":12394:12396   */\n      0x40\n        /* \"#utility.yul\":12383:12392   */\n      dup4\n        /* \"#utility.yul\":12379:12397   */\n      add\n        /* \"#utility.yul\":12370:12376   */\n      dup5\n        /* \"#utility.yul\":12328:12398   */\n      tag_93\n      jump\t// in\n    tag_227:\n        /* \"#utility.yul\":11967:12405   */\n      swap5\n      swap4\n      pop\n      pop\n      pop\n      pop\n      jump\t// out\n\n    auxdata: 0xa26469706673582212206f5f392849e4885cf34f4f5aaf2f5c5630123f16693f5492dd24d6093254e95c64736f6c634300081a0033\n}\n",
				"bytecode": {
					"linkReferences": {},
					"object": "608060405260645f806101000a81548160ff021916908360ff1602179055503480156028575f80fd5b50610f18806100365f395ff3fe608060405234801561000f575f80fd5b506004361061007b575f3560e01c80636ac5db19116100595780636ac5db19146100eb578063701fd0f1146101095780637b43a8e614610125578063f14fcbc8146101575761007b565b806338cc48311461007f5780633cf5040a1461009d5780634817df3b146100cd575b5f80fd5b610087610173565b60405161009491906108a5565b60405180910390f35b6100b760048036038101906100b291906108f5565b61017a565b6040516100c4919061092f565b60405180910390f35b6100d56101a9565b6040516100e291906109d3565b60405180910390f35b6100f3610253565b6040516101009190610a07565b60405180910390f35b610123600480360381019061011e91906108f5565b610263565b005b61013f600480360381019061013a9190610a4a565b610621565b60405161014e93929190610a93565b60405180910390f35b610171600480360381019061016c91906108f5565b610667565b005b5f30905090565b5f8160405160200161018c9190610ae8565b604051602081830303815290604052805190602001209050919050565b6101b1610839565b60015f3373ffffffffffffffffffffffffffffffffffffffff1673ffffffffffffffffffffffffffffffffffffffff1681526020019081526020015f206040518060600160405290815f8201548152602001600182015f9054906101000a900467ffffffffffffffff1667ffffffffffffffff1667ffffffffffffffff1681526020016001820160089054906101000a900460ff161515151581525050905090565b5f8054906101000a900460ff1681565b5f151560015f3373ffffffffffffffffffffffffffffffffffffffff1673ffffffffffffffffffffffffffffffffffffffff1681526020019081526020015f2060010160089054906101000a900460ff161515146102f6576040517f08c379a00000000000000000000000000000000000000000000000000000000081526004016102ed90610b82565b60405180910390fd5b6001805f3373ffffffffffffffffffffffffffffffffffffffff1673ffffffffffffffffffffffffffffffffffffffff1681526020019081526020015f2060010160086101000a81548160ff02191690831515021790555060015f3373ffffffffffffffffffffffffffffffffffffffff1673ffffffffffffffffffffffffffffffffffffffff1681526020019081526020015f205f01546103978261017a565b146103d7576040517f08c379a00000000000000000000000000000000000000000000000000000000081526004016103ce90610c10565b60405180910390fd5b60015f3373ffffffffffffffffffffffffffffffffffffffff1673ffffffffffffffffffffffffffffffffffffffff1681526020019081526020015f206001015f9054906101000a900467ffffffffffffffff1667ffffffffffffffff164367ffffffffffffffff1611610480576040517f08c379a000000000000000000000000000000000000000000000000000000000815260040161047790610cc4565b60405180910390fd5b60fa60015f3373ffffffffffffffffffffffffffffffffffffffff1673ffffffffffffffffffffffffffffffffffffffff1681526020019081526020015f206001015f9054906101000a900467ffffffffffffffff166104e09190610d0f565b67ffffffffffffffff164367ffffffffffffffff161115610536576040517f08c379a000000000000000000000000000000000000000000000000000000000815260040161052d90610dba565b60405180910390fd5b5f60015f3373ffffffffffffffffffffffffffffffffffffffff1673ffffffffffffffffffffffffffffffffffffffff1681526020019081526020015f206001015f9054906101000a900467ffffffffffffffff1667ffffffffffffffff164090505f805f9054906101000a900460ff1660ff1682846040516020016105bd929190610dd8565b604051602081830303815290604052805190602001205f1c6105df9190610e39565b90507fbc016dd1cadeaefcb851af7a0a93532e0023d536894b730801f7bcfe7065bcc233848360405161061493929190610e78565b60405180910390a1505050565b6001602052805f5260405f205f91509050805f015490806001015f9054906101000a900467ffffffffffffffff16908060010160089054906101000a900460ff16905083565b8060015f3373ffffffffffffffffffffffffffffffffffffffff1673ffffffffffffffffffffffffffffffffffffffff1681526020019081526020015f205f01819055504360015f3373ffffffffffffffffffffffffffffffffffffffff1673ffffffffffffffffffffffffffffffffffffffff1681526020019081526020015f206001015f6101000a81548167ffffffffffffffff021916908367ffffffffffffffff1602179055505f60015f3373ffffffffffffffffffffffffffffffffffffffff1673ffffffffffffffffffffffffffffffffffffffff1681526020019081526020015f2060010160086101000a81548160ff0219169083151502179055507f3c1a1f8f38335b17f751c6da4ba7d1865f26b3997535176f5080de9fad8916033360015f3373ffffffffffffffffffffffffffffffffffffffff1673ffffffffffffffffffffffffffffffffffffffff1681526020019081526020015f205f015460015f3373ffffffffffffffffffffffffffffffffffffffff1673ffffffffffffffffffffffffffffffffffffffff1681526020019081526020015f206001015f9054906101000a900467ffffffffffffffff1660405161082e93929190610ead565b60405180910390a150565b60405180606001604052805f80191681526020015f67ffffffffffffffff1681526020015f151581525090565b5f73ffffffffffffffffffffffffffffffffffffffff82169050919050565b5f61088f82610866565b9050919050565b61089f81610885565b82525050565b5f6020820190506108b85f830184610896565b92915050565b5f80fd5b5f819050919050565b6108d4816108c2565b81146108de575f80fd5b50565b5f813590506108ef816108cb565b92915050565b5f6020828403121561090a576109096108be565b5b5f610917848285016108e1565b91505092915050565b610929816108c2565b82525050565b5f6020820190506109425f830184610920565b92915050565b610951816108c2565b82525050565b5f67ffffffffffffffff82169050919050565b61097381610957565b82525050565b5f8115159050919050565b61098d81610979565b82525050565b606082015f8201516109a75f850182610948565b5060208201516109ba602085018261096a565b5060408201516109cd6040850182610984565b50505050565b5f6060820190506109e65f830184610993565b92915050565b5f60ff82169050919050565b610a01816109ec565b82525050565b5f602082019050610a1a5f8301846109f8565b92915050565b610a2981610885565b8114610a33575f80fd5b50565b5f81359050610a4481610a20565b92915050565b5f60208284031215610a5f57610a5e6108be565b5b5f610a6c84828501610a36565b91505092915050565b610a7e81610957565b82525050565b610a8d81610979565b82525050565b5f606082019050610aa65f830186610920565b610ab36020830185610a75565b610ac06040830184610a84565b949350505050565b5f819050919050565b610ae2610add826108c2565b610ac8565b82525050565b5f610af38284610ad1565b60208201915081905092915050565b5f82825260208201905092915050565b7f436f6d6d697452657665616c3a3a72657665616c3a20416c72656164792072655f8201527f7665616c65640000000000000000000000000000000000000000000000000000602082015250565b5f610b6c602683610b02565b9150610b7782610b12565b604082019050919050565b5f6020820190508181035f830152610b9981610b60565b9050919050565b7f436f6d6d697452657665616c3a3a72657665616c3a2052657665616c656420685f8201527f61736820646f6573206e6f74206d6174636820636f6d6d697400000000000000602082015250565b5f610bfa603983610b02565b9150610c0582610ba0565b604082019050919050565b5f6020820190508181035f830152610c2781610bee565b9050919050565b7f436f6d6d697452657665616c3a3a72657665616c3a2052657665616c20616e645f8201527f20636f6d6d69742068617070656e6564206f6e207468652073616d6520626c6f60208201527f636b000000000000000000000000000000000000000000000000000000000000604082015250565b5f610cae604283610b02565b9150610cb982610c2e565b606082019050919050565b5f6020820190508181035f830152610cdb81610ca2565b9050919050565b7f4e487b71000000000000000000000000000000000000000000000000000000005f52601160045260245ffd5b5f610d1982610957565b9150610d2483610957565b9250828201905067ffffffffffffffff811115610d4457610d43610ce2565b5b92915050565b7f436f6d6d697452657665616c3a3a72657665616c3a2052657665616c656420745f8201527f6f6f206c61746500000000000000000000000000000000000000000000000000602082015250565b5f610da4602783610b02565b9150610daf82610d4a565b604082019050919050565b5f6020820190508181035f830152610dd181610d98565b9050919050565b5f610de38285610ad1565b602082019150610df38284610ad1565b6020820191508190509392505050565b5f819050919050565b7f4e487b71000000000000000000000000000000000000000000000000000000005f52601260045260245ffd5b5f610e4382610e03565b9150610e4e83610e03565b925082610e5e57610e5d610e0c565b5b828206905092915050565b610e7281610e03565b82525050565b5f606082019050610e8b5f830186610896565b610e986020830185610920565b610ea56040830184610e69565b949350505050565b5f606082019050610ec05f830186610896565b610ecd6020830185610920565b610eda6040830184610a75565b94935050505056fea26469706673582212206f5f392849e4885cf34f4f5aaf2f5c5630123f16693f5492dd24d6093254e95c64736f6c634300081a0033",
					"opcodes": "PUSH1 0x80 PUSH1 0x40 MSTORE PUSH1 0x64 PUSH0 DUP1 PUSH2 0x100 EXP DUP2 SLOAD DUP2 PUSH1 0xFF MUL NOT AND SWAP1 DUP4 PUSH1 0xFF AND MUL OR SWAP1 SSTORE POP CALLVALUE DUP1 ISZERO PUSH1 0x28 JUMPI PUSH0 DUP1 REVERT JUMPDEST POP PUSH2 0xF18 DUP1 PUSH2 0x36 PUSH0 CODECOPY PUSH0 RETURN INVALID PUSH1 0x80 PUSH1 0x40 MSTORE CALLVALUE DUP1 ISZERO PUSH2 0xF JUMPI PUSH0 DUP1 REVERT JUMPDEST POP PUSH1 0x4 CALLDATASIZE LT PUSH2 0x7B JUMPI PUSH0 CALLDATALOAD PUSH1 0xE0 SHR DUP1 PUSH4 0x6AC5DB19 GT PUSH2 0x59 JUMPI DUP1 PUSH4 0x6AC5DB19 EQ PUSH2 0xEB JUMPI DUP1 PUSH4 0x701FD0F1 EQ PUSH2 0x109 JUMPI DUP1 PUSH4 0x7B43A8E6 EQ PUSH2 0x125 JUMPI DUP1 PUSH4 0xF14FCBC8 EQ PUSH2 0x157 JUMPI PUSH2 0x7B JUMP JUMPDEST DUP1 PUSH4 0x38CC4831 EQ PUSH2 0x7F JUMPI DUP1 PUSH4 0x3CF5040A EQ PUSH2 0x9D JUMPI DUP1 PUSH4 0x4817DF3B EQ PUSH2 0xCD JUMPI JUMPDEST PUSH0 DUP1 REVERT JUMPDEST PUSH2 0x87 PUSH2 0x173 JUMP JUMPDEST PUSH1 0x40 MLOAD PUSH2 0x94 SWAP2 SWAP1 PUSH2 0x8A5 JUMP JUMPDEST PUSH1 0x40 MLOAD DUP1 SWAP2 SUB SWAP1 RETURN JUMPDEST PUSH2 0xB7 PUSH1 0x4 DUP1 CALLDATASIZE SUB DUP2 ADD SWAP1 PUSH2 0xB2 SWAP2 SWAP1 PUSH2 0x8F5 JUMP JUMPDEST PUSH2 0x17A JUMP JUMPDEST PUSH1 0x40 MLOAD PUSH2 0xC4 SWAP2 SWAP1 PUSH2 0x92F JUMP JUMPDEST PUSH1 0x40 MLOAD DUP1 SWAP2 SUB SWAP1 RETURN JUMPDEST PUSH2 0xD5 PUSH2 0x1A9 JUMP JUMPDEST PUSH1 0x40 MLOAD PUSH2 0xE2 SWAP2 SWAP1 PUSH2 0x9D3 JUMP JUMPDEST PUSH1 0x40 MLOAD DUP1 SWAP2 SUB SWAP1 RETURN JUMPDEST PUSH2 0xF3 PUSH2 0x253 JUMP JUMPDEST PUSH1 0x40 MLOAD PUSH2 0x100 SWAP2 SWAP1 PUSH2 0xA07 JUMP JUMPDEST PUSH1 0x40 MLOAD DUP1 SWAP2 SUB SWAP1 RETURN JUMPDEST PUSH2 0x123 PUSH1 0x4 DUP1 CALLDATASIZE SUB DUP2 ADD SWAP1 PUSH2 0x11E SWAP2 SWAP1 PUSH2 0x8F5 JUMP JUMPDEST PUSH2 0x263 JUMP JUMPDEST STOP JUMPDEST PUSH2 0x13F PUSH1 0x4 DUP1 CALLDATASIZE SUB DUP2 ADD SWAP1 PUSH2 0x13A SWAP2 SWAP1 PUSH2 0xA4A JUMP JUMPDEST PUSH2 0x621 JUMP JUMPDEST PUSH1 0x40 MLOAD PUSH2 0x14E SWAP4 SWAP3 SWAP2 SWAP1 PUSH2 0xA93 JUMP JUMPDEST PUSH1 0x40 MLOAD DUP1 SWAP2 SUB SWAP1 RETURN JUMPDEST PUSH2 0x171 PUSH1 0x4 DUP1 CALLDATASIZE SUB DUP2 ADD SWAP1 PUSH2 0x16C SWAP2 SWAP1 PUSH2 0x8F5 JUMP JUMPDEST PUSH2 0x667 JUMP JUMPDEST STOP JUMPDEST PUSH0 ADDRESS SWAP1 POP SWAP1 JUMP JUMPDEST PUSH0 DUP2 PUSH1 0x40 MLOAD PUSH1 0x20 ADD PUSH2 0x18C SWAP2 SWAP1 PUSH2 0xAE8 JUMP JUMPDEST PUSH1 0x40 MLOAD PUSH1 0x20 DUP2 DUP4 SUB SUB DUP2 MSTORE SWAP1 PUSH1 0x40 MSTORE DUP1 MLOAD SWAP1 PUSH1 0x20 ADD KECCAK256 SWAP1 POP SWAP2 SWAP1 POP JUMP JUMPDEST PUSH2 0x1B1 PUSH2 0x839 JUMP JUMPDEST PUSH1 0x1 PUSH0 CALLER PUSH20 0xFFFFFFFFFFFFFFFFFFFFFFFFFFFFFFFFFFFFFFFF AND PUSH20 0xFFFFFFFFFFFFFFFFFFFFFFFFFFFFFFFFFFFFFFFF AND DUP2 MSTORE PUSH1 0x20 ADD SWAP1 DUP2 MSTORE PUSH1 0x20 ADD PUSH0 KECCAK256 PUSH1 0x40 MLOAD DUP1 PUSH1 0x60 ADD PUSH1 0x40 MSTORE SWAP1 DUP2 PUSH0 DUP3 ADD SLOAD DUP2 MSTORE PUSH1 0x20 ADD PUSH1 0x1 DUP3 ADD PUSH0 SWAP1 SLOAD SWAP1 PUSH2 0x100 EXP SWAP1 DIV PUSH8 0xFFFFFFFFFFFFFFFF AND PUSH8 0xFFFFFFFFFFFFFFFF AND PUSH8 0xFFFFFFFFFFFFFFFF AND DUP2 MSTORE PUSH1 0x20 ADD PUSH1 0x1 DUP3 ADD PUSH1 0x8 SWAP1 SLOAD SWAP1 PUSH2 0x100 EXP SWAP1 DIV PUSH1 0xFF AND ISZERO ISZERO ISZERO ISZERO DUP2 MSTORE POP POP SWAP1 POP SWAP1 JUMP JUMPDEST PUSH0 DUP1 SLOAD SWAP1 PUSH2 0x100 EXP SWAP1 DIV PUSH1 0xFF AND DUP2 JUMP JUMPDEST PUSH0 ISZERO ISZERO PUSH1 0x1 PUSH0 CALLER PUSH20 0xFFFFFFFFFFFFFFFFFFFFFFFFFFFFFFFFFFFFFFFF AND PUSH20 0xFFFFFFFFFFFFFFFFFFFFFFFFFFFFFFFFFFFFFFFF AND DUP2 MSTORE PUSH1 0x20 ADD SWAP1 DUP2 MSTORE PUSH1 0x20 ADD PUSH0 KECCAK256 PUSH1 0x1 ADD PUSH1 0x8 SWAP1 SLOAD SWAP1 PUSH2 0x100 EXP SWAP1 DIV PUSH1 0xFF AND ISZERO ISZERO EQ PUSH2 0x2F6 JUMPI PUSH1 0x40 MLOAD PUSH32 0x8C379A000000000000000000000000000000000000000000000000000000000 DUP2 MSTORE PUSH1 0x4 ADD PUSH2 0x2ED SWAP1 PUSH2 0xB82 JUMP JUMPDEST PUSH1 0x40 MLOAD DUP1 SWAP2 SUB SWAP1 REVERT JUMPDEST PUSH1 0x1 DUP1 PUSH0 CALLER PUSH20 0xFFFFFFFFFFFFFFFFFFFFFFFFFFFFFFFFFFFFFFFF AND PUSH20 0xFFFFFFFFFFFFFFFFFFFFFFFFFFFFFFFFFFFFFFFF AND DUP2 MSTORE PUSH1 0x20 ADD SWAP1 DUP2 MSTORE PUSH1 0x20 ADD PUSH0 KECCAK256 PUSH1 0x1 ADD PUSH1 0x8 PUSH2 0x100 EXP DUP2 SLOAD DUP2 PUSH1 0xFF MUL NOT AND SWAP1 DUP4 ISZERO ISZERO MUL OR SWAP1 SSTORE POP PUSH1 0x1 PUSH0 CALLER PUSH20 0xFFFFFFFFFFFFFFFFFFFFFFFFFFFFFFFFFFFFFFFF AND PUSH20 0xFFFFFFFFFFFFFFFFFFFFFFFFFFFFFFFFFFFFFFFF AND DUP2 MSTORE PUSH1 0x20 ADD SWAP1 DUP2 MSTORE PUSH1 0x20 ADD PUSH0 KECCAK256 PUSH0 ADD SLOAD PUSH2 0x397 DUP3 PUSH2 0x17A JUMP JUMPDEST EQ PUSH2 0x3D7 JUMPI PUSH1 0x40 MLOAD PUSH32 0x8C379A000000000000000000000000000000000000000000000000000000000 DUP2 MSTORE PUSH1 0x4 ADD PUSH2 0x3CE SWAP1 PUSH2 0xC10 JUMP JUMPDEST PUSH1 0x40 MLOAD DUP1 SWAP2 SUB SWAP1 REVERT JUMPDEST PUSH1 0x1 PUSH0 CALLER PUSH20 0xFFFFFFFFFFFFFFFFFFFFFFFFFFFFFFFFFFFFFFFF AND PUSH20 0xFFFFFFFFFFFFFFFFFFFFFFFFFFFFFFFFFFFFFFFF AND DUP2 MSTORE PUSH1 0x20 ADD SWAP1 DUP2 MSTORE PUSH1 0x20 ADD PUSH0 KECCAK256 PUSH1 0x1 ADD PUSH0 SWAP1 SLOAD SWAP1 PUSH2 0x100 EXP SWAP1 DIV PUSH8 0xFFFFFFFFFFFFFFFF AND PUSH8 0xFFFFFFFFFFFFFFFF AND NUMBER PUSH8 0xFFFFFFFFFFFFFFFF AND GT PUSH2 0x480 JUMPI PUSH1 0x40 MLOAD PUSH32 0x8C379A000000000000000000000000000000000000000000000000000000000 DUP2 MSTORE PUSH1 0x4 ADD PUSH2 0x477 SWAP1 PUSH2 0xCC4 JUMP JUMPDEST PUSH1 0x40 MLOAD DUP1 SWAP2 SUB SWAP1 REVERT JUMPDEST PUSH1 0xFA PUSH1 0x1 PUSH0 CALLER PUSH20 0xFFFFFFFFFFFFFFFFFFFFFFFFFFFFFFFFFFFFFFFF AND PUSH20 0xFFFFFFFFFFFFFFFFFFFFFFFFFFFFFFFFFFFFFFFF AND DUP2 MSTORE PUSH1 0x20 ADD SWAP1 DUP2 MSTORE PUSH1 0x20 ADD PUSH0 KECCAK256 PUSH1 0x1 ADD PUSH0 SWAP1 SLOAD SWAP1 PUSH2 0x100 EXP SWAP1 DIV PUSH8 0xFFFFFFFFFFFFFFFF AND PUSH2 0x4E0 SWAP2 SWAP1 PUSH2 0xD0F JUMP JUMPDEST PUSH8 0xFFFFFFFFFFFFFFFF AND NUMBER PUSH8 0xFFFFFFFFFFFFFFFF AND GT ISZERO PUSH2 0x536 JUMPI PUSH1 0x40 MLOAD PUSH32 0x8C379A000000000000000000000000000000000000000000000000000000000 DUP2 MSTORE PUSH1 0x4 ADD PUSH2 0x52D SWAP1 PUSH2 0xDBA JUMP JUMPDEST PUSH1 0x40 MLOAD DUP1 SWAP2 SUB SWAP1 REVERT JUMPDEST PUSH0 PUSH1 0x1 PUSH0 CALLER PUSH20 0xFFFFFFFFFFFFFFFFFFFFFFFFFFFFFFFFFFFFFFFF AND PUSH20 0xFFFFFFFFFFFFFFFFFFFFFFFFFFFFFFFFFFFFFFFF AND DUP2 MSTORE PUSH1 0x20 ADD SWAP1 DUP2 MSTORE PUSH1 0x20 ADD PUSH0 KECCAK256 PUSH1 0x1 ADD PUSH0 SWAP1 SLOAD SWAP1 PUSH2 0x100 EXP SWAP1 DIV PUSH8 0xFFFFFFFFFFFFFFFF AND PUSH8 0xFFFFFFFFFFFFFFFF AND BLOCKHASH SWAP1 POP PUSH0 DUP1 PUSH0 SWAP1 SLOAD SWAP1 PUSH2 0x100 EXP SWAP1 DIV PUSH1 0xFF AND PUSH1 0xFF AND DUP3 DUP5 PUSH1 0x40 MLOAD PUSH1 0x20 ADD PUSH2 0x5BD SWAP3 SWAP2 SWAP1 PUSH2 0xDD8 JUMP JUMPDEST PUSH1 0x40 MLOAD PUSH1 0x20 DUP2 DUP4 SUB SUB DUP2 MSTORE SWAP1 PUSH1 0x40 MSTORE DUP1 MLOAD SWAP1 PUSH1 0x20 ADD KECCAK256 PUSH0 SHR PUSH2 0x5DF SWAP2 SWAP1 PUSH2 0xE39 JUMP JUMPDEST SWAP1 POP PUSH32 0xBC016DD1CADEAEFCB851AF7A0A93532E0023D536894B730801F7BCFE7065BCC2 CALLER DUP5 DUP4 PUSH1 0x40 MLOAD PUSH2 0x614 SWAP4 SWAP3 SWAP2 SWAP1 PUSH2 0xE78 JUMP JUMPDEST PUSH1 0x40 MLOAD DUP1 SWAP2 SUB SWAP1 LOG1 POP POP POP JUMP JUMPDEST PUSH1 0x1 PUSH1 0x20 MSTORE DUP1 PUSH0 MSTORE PUSH1 0x40 PUSH0 KECCAK256 PUSH0 SWAP2 POP SWAP1 POP DUP1 PUSH0 ADD SLOAD SWAP1 DUP1 PUSH1 0x1 ADD PUSH0 SWAP1 SLOAD SWAP1 PUSH2 0x100 EXP SWAP1 DIV PUSH8 0xFFFFFFFFFFFFFFFF AND SWAP1 DUP1 PUSH1 0x1 ADD PUSH1 0x8 SWAP1 SLOAD SWAP1 PUSH2 0x100 EXP SWAP1 DIV PUSH1 0xFF AND SWAP1 POP DUP4 JUMP JUMPDEST DUP1 PUSH1 0x1 PUSH0 CALLER PUSH20 0xFFFFFFFFFFFFFFFFFFFFFFFFFFFFFFFFFFFFFFFF AND PUSH20 0xFFFFFFFFFFFFFFFFFFFFFFFFFFFFFFFFFFFFFFFF AND DUP2 MSTORE PUSH1 0x20 ADD SWAP1 DUP2 MSTORE PUSH1 0x20 ADD PUSH0 KECCAK256 PUSH0 ADD DUP2 SWAP1 SSTORE POP NUMBER PUSH1 0x1 PUSH0 CALLER PUSH20 0xFFFFFFFFFFFFFFFFFFFFFFFFFFFFFFFFFFFFFFFF AND PUSH20 0xFFFFFFFFFFFFFFFFFFFFFFFFFFFFFFFFFFFFFFFF AND DUP2 MSTORE PUSH1 0x20 ADD SWAP1 DUP2 MSTORE PUSH1 0x20 ADD PUSH0 KECCAK256 PUSH1 0x1 ADD PUSH0 PUSH2 0x100 EXP DUP2 SLOAD DUP2 PUSH8 0xFFFFFFFFFFFFFFFF MUL NOT AND SWAP1 DUP4 PUSH8 0xFFFFFFFFFFFFFFFF AND MUL OR SWAP1 SSTORE POP PUSH0 PUSH1 0x1 PUSH0 CALLER PUSH20 0xFFFFFFFFFFFFFFFFFFFFFFFFFFFFFFFFFFFFFFFF AND PUSH20 0xFFFFFFFFFFFFFFFFFFFFFFFFFFFFFFFFFFFFFFFF AND DUP2 MSTORE PUSH1 0x20 ADD SWAP1 DUP2 MSTORE PUSH1 0x20 ADD PUSH0 KECCAK256 PUSH1 0x1 ADD PUSH1 0x8 PUSH2 0x100 EXP DUP2 SLOAD DUP2 PUSH1 0xFF MUL NOT AND SWAP1 DUP4 ISZERO ISZERO MUL OR SWAP1 SSTORE POP PUSH32 0x3C1A1F8F38335B17F751C6DA4BA7D1865F26B3997535176F5080DE9FAD891603 CALLER PUSH1 0x1 PUSH0 CALLER PUSH20 0xFFFFFFFFFFFFFFFFFFFFFFFFFFFFFFFFFFFFFFFF AND PUSH20 0xFFFFFFFFFFFFFFFFFFFFFFFFFFFFFFFFFFFFFFFF AND DUP2 MSTORE PUSH1 0x20 ADD SWAP1 DUP2 MSTORE PUSH1 0x20 ADD PUSH0 KECCAK256 PUSH0 ADD SLOAD PUSH1 0x1 PUSH0 CALLER PUSH20 0xFFFFFFFFFFFFFFFFFFFFFFFFFFFFFFFFFFFFFFFF AND PUSH20 0xFFFFFFFFFFFFFFFFFFFFFFFFFFFFFFFFFFFFFFFF AND DUP2 MSTORE PUSH1 0x20 ADD SWAP1 DUP2 MSTORE PUSH1 0x20 ADD PUSH0 KECCAK256 PUSH1 0x1 ADD PUSH0 SWAP1 SLOAD SWAP1 PUSH2 0x100 EXP SWAP1 DIV PUSH8 0xFFFFFFFFFFFFFFFF AND PUSH1 0x40 MLOAD PUSH2 0x82E SWAP4 SWAP3 SWAP2 SWAP1 PUSH2 0xEAD JUMP JUMPDEST PUSH1 0x40 MLOAD DUP1 SWAP2 SUB SWAP1 LOG1 POP JUMP JUMPDEST PUSH1 0x40 MLOAD DUP1 PUSH1 0x60 ADD PUSH1 0x40 MSTORE DUP1 PUSH0 DUP1 NOT AND DUP2 MSTORE PUSH1 0x20 ADD PUSH0 PUSH8 0xFFFFFFFFFFFFFFFF AND DUP2 MSTORE PUSH1 0x20 ADD PUSH0 ISZERO ISZERO DUP2 MSTORE POP SWAP1 JUMP JUMPDEST PUSH0 PUSH20 0xFFFFFFFFFFFFFFFFFFFFFFFFFFFFFFFFFFFFFFFF DUP3 AND SWAP1 POP SWAP2 SWAP1 POP JUMP JUMPDEST PUSH0 PUSH2 0x88F DUP3 PUSH2 0x866 JUMP JUMPDEST SWAP1 POP SWAP2 SWAP1 POP JUMP JUMPDEST PUSH2 0x89F DUP2 PUSH2 0x885 JUMP JUMPDEST DUP3 MSTORE POP POP JUMP JUMPDEST PUSH0 PUSH1 0x20 DUP3 ADD SWAP1 POP PUSH2 0x8B8 PUSH0 DUP4 ADD DUP5 PUSH2 0x896 JUMP JUMPDEST SWAP3 SWAP2 POP POP JUMP JUMPDEST PUSH0 DUP1 REVERT JUMPDEST PUSH0 DUP2 SWAP1 POP SWAP2 SWAP1 POP JUMP JUMPDEST PUSH2 0x8D4 DUP2 PUSH2 0x8C2 JUMP JUMPDEST DUP2 EQ PUSH2 0x8DE JUMPI PUSH0 DUP1 REVERT JUMPDEST POP JUMP JUMPDEST PUSH0 DUP2 CALLDATALOAD SWAP1 POP PUSH2 0x8EF DUP2 PUSH2 0x8CB JUMP JUMPDEST SWAP3 SWAP2 POP POP JUMP JUMPDEST PUSH0 PUSH1 0x20 DUP3 DUP5 SUB SLT ISZERO PUSH2 0x90A JUMPI PUSH2 0x909 PUSH2 0x8BE JUMP JUMPDEST JUMPDEST PUSH0 PUSH2 0x917 DUP5 DUP3 DUP6 ADD PUSH2 0x8E1 JUMP JUMPDEST SWAP2 POP POP SWAP3 SWAP2 POP POP JUMP JUMPDEST PUSH2 0x929 DUP2 PUSH2 0x8C2 JUMP JUMPDEST DUP3 MSTORE POP POP JUMP JUMPDEST PUSH0 PUSH1 0x20 DUP3 ADD SWAP1 POP PUSH2 0x942 PUSH0 DUP4 ADD DUP5 PUSH2 0x920 JUMP JUMPDEST SWAP3 SWAP2 POP POP JUMP JUMPDEST PUSH2 0x951 DUP2 PUSH2 0x8C2 JUMP JUMPDEST DUP3 MSTORE POP POP JUMP JUMPDEST PUSH0 PUSH8 0xFFFFFFFFFFFFFFFF DUP3 AND SWAP1 POP SWAP2 SWAP1 POP JUMP JUMPDEST PUSH2 0x973 DUP2 PUSH2 0x957 JUMP JUMPDEST DUP3 MSTORE POP POP JUMP JUMPDEST PUSH0 DUP2 ISZERO ISZERO SWAP1 POP SWAP2 SWAP1 POP JUMP JUMPDEST PUSH2 0x98D DUP2 PUSH2 0x979 JUMP JUMPDEST DUP3 MSTORE POP POP JUMP JUMPDEST PUSH1 0x60 DUP3 ADD PUSH0 DUP3 ADD MLOAD PUSH2 0x9A7 PUSH0 DUP6 ADD DUP3 PUSH2 0x948 JUMP JUMPDEST POP PUSH1 0x20 DUP3 ADD MLOAD PUSH2 0x9BA PUSH1 0x20 DUP6 ADD DUP3 PUSH2 0x96A JUMP JUMPDEST POP PUSH1 0x40 DUP3 ADD MLOAD PUSH2 0x9CD PUSH1 0x40 DUP6 ADD DUP3 PUSH2 0x984 JUMP JUMPDEST POP POP POP POP JUMP JUMPDEST PUSH0 PUSH1 0x60 DUP3 ADD SWAP1 POP PUSH2 0x9E6 PUSH0 DUP4 ADD DUP5 PUSH2 0x993 JUMP JUMPDEST SWAP3 SWAP2 POP POP JUMP JUMPDEST PUSH0 PUSH1 0xFF DUP3 AND SWAP1 POP SWAP2 SWAP1 POP JUMP JUMPDEST PUSH2 0xA01 DUP2 PUSH2 0x9EC JUMP JUMPDEST DUP3 MSTORE POP POP JUMP JUMPDEST PUSH0 PUSH1 0x20 DUP3 ADD SWAP1 POP PUSH2 0xA1A PUSH0 DUP4 ADD DUP5 PUSH2 0x9F8 JUMP JUMPDEST SWAP3 SWAP2 POP POP JUMP JUMPDEST PUSH2 0xA29 DUP2 PUSH2 0x885 JUMP JUMPDEST DUP2 EQ PUSH2 0xA33 JUMPI PUSH0 DUP1 REVERT JUMPDEST POP JUMP JUMPDEST PUSH0 DUP2 CALLDATALOAD SWAP1 POP PUSH2 0xA44 DUP2 PUSH2 0xA20 JUMP JUMPDEST SWAP3 SWAP2 POP POP JUMP JUMPDEST PUSH0 PUSH1 0x20 DUP3 DUP5 SUB SLT ISZERO PUSH2 0xA5F JUMPI PUSH2 0xA5E PUSH2 0x8BE JUMP JUMPDEST JUMPDEST PUSH0 PUSH2 0xA6C DUP5 DUP3 DUP6 ADD PUSH2 0xA36 JUMP JUMPDEST SWAP2 POP POP SWAP3 SWAP2 POP POP JUMP JUMPDEST PUSH2 0xA7E DUP2 PUSH2 0x957 JUMP JUMPDEST DUP3 MSTORE POP POP JUMP JUMPDEST PUSH2 0xA8D DUP2 PUSH2 0x979 JUMP JUMPDEST DUP3 MSTORE POP POP JUMP JUMPDEST PUSH0 PUSH1 0x60 DUP3 ADD SWAP1 POP PUSH2 0xAA6 PUSH0 DUP4 ADD DUP7 PUSH2 0x920 JUMP JUMPDEST PUSH2 0xAB3 PUSH1 0x20 DUP4 ADD DUP6 PUSH2 0xA75 JUMP JUMPDEST PUSH2 0xAC0 PUSH1 0x40 DUP4 ADD DUP5 PUSH2 0xA84 JUMP JUMPDEST SWAP5 SWAP4 POP POP POP POP JUMP JUMPDEST PUSH0 DUP2 SWAP1 POP SWAP2 SWAP1 POP JUMP JUMPDEST PUSH2 0xAE2 PUSH2 0xADD DUP3 PUSH2 0x8C2 JUMP JUMPDEST PUSH2 0xAC8 JUMP JUMPDEST DUP3 MSTORE POP POP JUMP JUMPDEST PUSH0 PUSH2 0xAF3 DUP3 DUP5 PUSH2 0xAD1 JUMP JUMPDEST PUSH1 0x20 DUP3 ADD SWAP2 POP DUP2 SWAP1 POP SWAP3 SWAP2 POP POP JUMP JUMPDEST PUSH0 DUP3 DUP3 MSTORE PUSH1 0x20 DUP3 ADD SWAP1 POP SWAP3 SWAP2 POP POP JUMP JUMPDEST PUSH32 0x436F6D6D697452657665616C3A3A72657665616C3A20416C7265616479207265 PUSH0 DUP3 ADD MSTORE PUSH32 0x7665616C65640000000000000000000000000000000000000000000000000000 PUSH1 0x20 DUP3 ADD MSTORE POP JUMP JUMPDEST PUSH0 PUSH2 0xB6C PUSH1 0x26 DUP4 PUSH2 0xB02 JUMP JUMPDEST SWAP2 POP PUSH2 0xB77 DUP3 PUSH2 0xB12 JUMP JUMPDEST PUSH1 0x40 DUP3 ADD SWAP1 POP SWAP2 SWAP1 POP JUMP JUMPDEST PUSH0 PUSH1 0x20 DUP3 ADD SWAP1 POP DUP2 DUP2 SUB PUSH0 DUP4 ADD MSTORE PUSH2 0xB99 DUP2 PUSH2 0xB60 JUMP JUMPDEST SWAP1 POP SWAP2 SWAP1 POP JUMP JUMPDEST PUSH32 0x436F6D6D697452657665616C3A3A72657665616C3A2052657665616C65642068 PUSH0 DUP3 ADD MSTORE PUSH32 0x61736820646F6573206E6F74206D6174636820636F6D6D697400000000000000 PUSH1 0x20 DUP3 ADD MSTORE POP JUMP JUMPDEST PUSH0 PUSH2 0xBFA PUSH1 0x39 DUP4 PUSH2 0xB02 JUMP JUMPDEST SWAP2 POP PUSH2 0xC05 DUP3 PUSH2 0xBA0 JUMP JUMPDEST PUSH1 0x40 DUP3 ADD SWAP1 POP SWAP2 SWAP1 POP JUMP JUMPDEST PUSH0 PUSH1 0x20 DUP3 ADD SWAP1 POP DUP2 DUP2 SUB PUSH0 DUP4 ADD MSTORE PUSH2 0xC27 DUP2 PUSH2 0xBEE JUMP JUMPDEST SWAP1 POP SWAP2 SWAP1 POP JUMP JUMPDEST PUSH32 0x436F6D6D697452657665616C3A3A72657665616C3A2052657665616C20616E64 PUSH0 DUP3 ADD MSTORE PUSH32 0x20636F6D6D69742068617070656E6564206F6E207468652073616D6520626C6F PUSH1 0x20 DUP3 ADD MSTORE PUSH32 0x636B000000000000000000000000000000000000000000000000000000000000 PUSH1 0x40 DUP3 ADD MSTORE POP JUMP JUMPDEST PUSH0 PUSH2 0xCAE PUSH1 0x42 DUP4 PUSH2 0xB02 JUMP JUMPDEST SWAP2 POP PUSH2 0xCB9 DUP3 PUSH2 0xC2E JUMP JUMPDEST PUSH1 0x60 DUP3 ADD SWAP1 POP SWAP2 SWAP1 POP JUMP JUMPDEST PUSH0 PUSH1 0x20 DUP3 ADD SWAP1 POP DUP2 DUP2 SUB PUSH0 DUP4 ADD MSTORE PUSH2 0xCDB DUP2 PUSH2 0xCA2 JUMP JUMPDEST SWAP1 POP SWAP2 SWAP1 POP JUMP JUMPDEST PUSH32 0x4E487B7100000000000000000000000000000000000000000000000000000000 PUSH0 MSTORE PUSH1 0x11 PUSH1 0x4 MSTORE PUSH1 0x24 PUSH0 REVERT JUMPDEST PUSH0 PUSH2 0xD19 DUP3 PUSH2 0x957 JUMP JUMPDEST SWAP2 POP PUSH2 0xD24 DUP4 PUSH2 0x957 JUMP JUMPDEST SWAP3 POP DUP3 DUP3 ADD SWAP1 POP PUSH8 0xFFFFFFFFFFFFFFFF DUP2 GT ISZERO PUSH2 0xD44 JUMPI PUSH2 0xD43 PUSH2 0xCE2 JUMP JUMPDEST JUMPDEST SWAP3 SWAP2 POP POP JUMP JUMPDEST PUSH32 0x436F6D6D697452657665616C3A3A72657665616C3A2052657665616C65642074 PUSH0 DUP3 ADD MSTORE PUSH32 0x6F6F206C61746500000000000000000000000000000000000000000000000000 PUSH1 0x20 DUP3 ADD MSTORE POP JUMP JUMPDEST PUSH0 PUSH2 0xDA4 PUSH1 0x27 DUP4 PUSH2 0xB02 JUMP JUMPDEST SWAP2 POP PUSH2 0xDAF DUP3 PUSH2 0xD4A JUMP JUMPDEST PUSH1 0x40 DUP3 ADD SWAP1 POP SWAP2 SWAP1 POP JUMP JUMPDEST PUSH0 PUSH1 0x20 DUP3 ADD SWAP1 POP DUP2 DUP2 SUB PUSH0 DUP4 ADD MSTORE PUSH2 0xDD1 DUP2 PUSH2 0xD98 JUMP JUMPDEST SWAP1 POP SWAP2 SWAP1 POP JUMP JUMPDEST PUSH0 PUSH2 0xDE3 DUP3 DUP6 PUSH2 0xAD1 JUMP JUMPDEST PUSH1 0x20 DUP3 ADD SWAP2 POP PUSH2 0xDF3 DUP3 DUP5 PUSH2 0xAD1 JUMP JUMPDEST PUSH1 0x20 DUP3 ADD SWAP2 POP DUP2 SWAP1 POP SWAP4 SWAP3 POP POP POP JUMP JUMPDEST PUSH0 DUP2 SWAP1 POP SWAP2 SWAP1 POP JUMP JUMPDEST PUSH32 0x4E487B7100000000000000000000000000000000000000000000000000000000 PUSH0 MSTORE PUSH1 0x12 PUSH1 0x4 MSTORE PUSH1 0x24 PUSH0 REVERT JUMPDEST PUSH0 PUSH2 0xE43 DUP3 PUSH2 0xE03 JUMP JUMPDEST SWAP2 POP PUSH2 0xE4E DUP4 PUSH2 0xE03 JUMP JUMPDEST SWAP3 POP DUP3 PUSH2 0xE5E JUMPI PUSH2 0xE5D PUSH2 0xE0C JUMP JUMPDEST JUMPDEST DUP3 DUP3 MOD SWAP1 POP SWAP3 SWAP2 POP POP JUMP JUMPDEST PUSH2 0xE72 DUP2 PUSH2 0xE03 JUMP JUMPDEST DUP3 MSTORE POP POP JUMP JUMPDEST PUSH0 PUSH1 0x60 DUP3 ADD SWAP1 POP PUSH2 0xE8B PUSH0 DUP4 ADD DUP7 PUSH2 0x896 JUMP JUMPDEST PUSH2 0xE98 PUSH1 0x20 DUP4 ADD DUP6 PUSH2 0x920 JUMP JUMPDEST PUSH2 0xEA5 PUSH1 0x40 DUP4 ADD DUP5 PUSH2 0xE69 JUMP JUMPDEST SWAP5 SWAP4 POP POP POP POP JUMP JUMPDEST PUSH0 PUSH1 0x60 DUP3 ADD SWAP1 POP PUSH2 0xEC0 PUSH0 DUP4 ADD DUP7 PUSH2 0x896 JUMP JUMPDEST PUSH2 0xECD PUSH1 0x20 DUP4 ADD DUP6 PUSH2 0x920 JUMP JUMPDEST PUSH2 0xEDA PUSH1 0x40 DUP4 ADD DUP5 PUSH2 0xA75 JUMP JUMPDEST SWAP5 SWAP4 POP POP POP POP JUMP INVALID LOG2 PUSH5 0x6970667358 0x22 SLT KECCAK256 PUSH16 0x5F392849E4885CF34F4F5AAF2F5C5630 SLT EXTCODEHASH AND PUSH10 0x3F5492DD24D6093254E9 TLOAD PUSH5 0x736F6C6343 STOP ADDMOD BYTE STOP CALLER "
				},
				"gasEstimates": {
					"creation": {
						"codeDepositCost": "772800",
						"executionCost": "25069",
						"totalCost": "797869"
					},
					"external": {
						"commit(bytes32)": "infinite",
						"commits(address)": "7414",
						"getAddress()": "380",
						"getHash(bytes32)": "infinite",
						"getMyCommit()": "7413",
						"max()": "2463",
						"reveal(bytes32)": "infinite"
					}
				},
				"methodIdentifiers": {
					"commit(bytes32)": "f14fcbc8",
					"commits(address)": "7b43a8e6",
					"getAddress()": "38cc4831",
					"getHash(bytes32)": "3cf5040a",
					"getMyCommit()": "4817df3b",
					"max()": "6ac5db19",
					"reveal(bytes32)": "701fd0f1"
				}
			},
			"storageLayout": {
				"storage": [
					{
						"astId": 4,
						"contract": "contracts/CommitReveal.sol:CommitReveal",
						"label": "max",
						"offset": 0,
						"slot": "0",
						"type": "t_uint8"
					},
					{
						"astId": 16,
						"contract": "contracts/CommitReveal.sol:CommitReveal",
						"label": "commits",
						"offset": 0,
						"slot": "1",
						"type": "t_mapping(t_address,t_struct(Commit)11_storage)"
					}
				],
				"types": {
					"t_address": {
						"encoding": "inplace",
						"label": "address",
						"numberOfBytes": "20"
					},
					"t_bool": {
						"encoding": "inplace",
						"label": "bool",
						"numberOfBytes": "1"
					},
					"t_bytes32": {
						"encoding": "inplace",
						"label": "bytes32",
						"numberOfBytes": "32"
					},
					"t_mapping(t_address,t_struct(Commit)11_storage)": {
						"encoding": "mapping",
						"key": "t_address",
						"label": "mapping(address => struct CommitReveal.Commit)",
						"numberOfBytes": "32",
						"value": "t_struct(Commit)11_storage"
					},
					"t_struct(Commit)11_storage": {
						"encoding": "inplace",
						"label": "struct CommitReveal.Commit",
						"members": [
							{
								"astId": 6,
								"contract": "contracts/CommitReveal.sol:CommitReveal",
								"label": "commit",
								"offset": 0,
								"slot": "0",
								"type": "t_bytes32"
							},
							{
								"astId": 8,
								"contract": "contracts/CommitReveal.sol:CommitReveal",
								"label": "block",
								"offset": 0,
								"slot": "1",
								"type": "t_uint64"
							},
							{
								"astId": 10,
								"contract": "contracts/CommitReveal.sol:CommitReveal",
								"label": "revealed",
								"offset": 8,
								"slot": "1",
								"type": "t_bool"
							}
						],
						"numberOfBytes": "64"
					},
					"t_uint64": {
						"encoding": "inplace",
						"label": "uint64",
						"numberOfBytes": "8"
					},
					"t_uint8": {
						"encoding": "inplace",
						"label": "uint8",
						"numberOfBytes": "1"
					}
				}
			},
			"userdoc": {
				"kind": "user",
				"methods": {},
				"version": 1
			}
		}
	}
}